{
    "contractName": "RPG404",
    "abi": [
        {
            "inputs": [],
            "stateMutability": "nonpayable",
            "type": "constructor"
        },
        {
            "anonymous": false,
            "inputs": [
                {
                    "indexed": true,
                    "internalType": "address",
                    "name": "owner",
                    "type": "address"
                },
                {
                    "indexed": true,
                    "internalType": "address",
                    "name": "approved",
                    "type": "address"
                },
                {
                    "indexed": true,
                    "internalType": "uint256",
                    "name": "tokenId",
                    "type": "uint256"
                }
            ],
            "name": "Approval",
            "type": "event"
        },
        {
            "anonymous": false,
            "inputs": [
                {
                    "indexed": true,
                    "internalType": "address",
                    "name": "owner",
                    "type": "address"
                },
                {
                    "indexed": true,
                    "internalType": "address",
                    "name": "operator",
                    "type": "address"
                },
                {
                    "indexed": false,
                    "internalType": "bool",
                    "name": "approved",
                    "type": "bool"
                }
            ],
            "name": "ApprovalForAll",
            "type": "event"
        },
        {
            "anonymous": false,
            "inputs": [
                {
                    "indexed": true,
                    "internalType": "address",
                    "name": "previousOwner",
                    "type": "address"
                },
                {
                    "indexed": true,
                    "internalType": "address",
                    "name": "newOwner",
                    "type": "address"
                }
            ],
            "name": "OwnershipTransferred",
            "type": "event"
        },
        {
            "anonymous": false,
            "inputs": [
                {
                    "indexed": true,
                    "internalType": "address",
                    "name": "from",
                    "type": "address"
                },
                {
                    "indexed": true,
                    "internalType": "address",
                    "name": "to",
                    "type": "address"
                },
                {
                    "indexed": true,
                    "internalType": "uint256",
                    "name": "tokenId",
                    "type": "uint256"
                }
            ],
            "name": "Transfer",
            "type": "event"
        },
        {
            "inputs": [
                {
                    "internalType": "address",
                    "name": "to",
                    "type": "address"
                },
                {
                    "internalType": "uint256",
                    "name": "tokenId",
                    "type": "uint256"
                }
            ],
            "name": "approve",
            "outputs": [],
            "stateMutability": "nonpayable",
            "type": "function"
        },
        {
            "inputs": [
                {
                    "internalType": "address",
                    "name": "owner",
                    "type": "address"
                }
            ],
            "name": "balanceOf",
            "outputs": [
                {
                    "internalType": "uint256",
                    "name": "",
                    "type": "uint256"
                }
            ],
            "stateMutability": "view",
            "type": "function"
        },
        {
            "inputs": [],
            "name": "baseExtension",
            "outputs": [
                {
                    "internalType": "string",
                    "name": "",
                    "type": "string"
                }
            ],
            "stateMutability": "view",
            "type": "function"
        },
        {
            "inputs": [],
            "name": "cost",
            "outputs": [
                {
                    "internalType": "uint256",
                    "name": "",
                    "type": "uint256"
                }
            ],
            "stateMutability": "view",
            "type": "function"
        },
        {
            "inputs": [
                {
                    "internalType": "address",
                    "name": "",
                    "type": "address"
                }
            ],
            "name": "freeMintedAmount",
            "outputs": [
                {
                    "internalType": "uint256",
                    "name": "",
                    "type": "uint256"
                }
            ],
            "stateMutability": "view",
            "type": "function"
        },
        {
            "inputs": [
                {
                    "internalType": "uint256",
                    "name": "tokenId",
                    "type": "uint256"
                }
            ],
            "name": "getApproved",
            "outputs": [
                {
                    "internalType": "address",
                    "name": "",
                    "type": "address"
                }
            ],
            "stateMutability": "view",
            "type": "function"
        },
        {
            "inputs": [
                {
                    "internalType": "address",
                    "name": "owner",
                    "type": "address"
                },
                {
                    "internalType": "address",
                    "name": "operator",
                    "type": "address"
                }
            ],
            "name": "isApprovedForAll",
            "outputs": [
                {
                    "internalType": "bool",
                    "name": "",
                    "type": "bool"
                }
            ],
            "stateMutability": "view",
            "type": "function"
        },
        {
            "inputs": [],
            "name": "maxFreeSupply",
            "outputs": [
                {
                    "internalType": "uint256",
                    "name": "",
                    "type": "uint256"
                }
            ],
            "stateMutability": "view",
            "type": "function"
        },
        {
            "inputs": [],
            "name": "maxPerAddressDuringFreeMint",
            "outputs": [
                {
                    "internalType": "uint256",
                    "name": "",
                    "type": "uint256"
                }
            ],
            "stateMutability": "view",
            "type": "function"
        },
        {
            "inputs": [],
            "name": "maxPerAddressDuringMint",
            "outputs": [
                {
                    "internalType": "uint256",
                    "name": "",
                    "type": "uint256"
                }
            ],
            "stateMutability": "view",
            "type": "function"
        },
        {
            "inputs": [],
            "name": "maxPerTxDuringMint",
            "outputs": [
                {
                    "internalType": "uint256",
                    "name": "",
                    "type": "uint256"
                }
            ],
            "stateMutability": "view",
            "type": "function"
        },
        {
            "inputs": [],
            "name": "maxSupply",
            "outputs": [
                {
                    "internalType": "uint256",
                    "name": "",
                    "type": "uint256"
                }
            ],
            "stateMutability": "view",
            "type": "function"
        },
        {
            "inputs": [
                {
                    "internalType": "address",
                    "name": "",
                    "type": "address"
                }
            ],
            "name": "mintedAmount",
            "outputs": [
                {
                    "internalType": "uint256",
                    "name": "",
                    "type": "uint256"
                }
            ],
            "stateMutability": "view",
            "type": "function"
        },
        {
            "inputs": [],
            "name": "name",
            "outputs": [
                {
                    "internalType": "string",
                    "name": "",
                    "type": "string"
                }
            ],
            "stateMutability": "view",
            "type": "function"
        },
        {
            "inputs": [],
            "name": "owner",
            "outputs": [
                {
                    "internalType": "address",
                    "name": "",
                    "type": "address"
                }
            ],
            "stateMutability": "view",
            "type": "function"
        },
        {
            "inputs": [
                {
                    "internalType": "uint256",
                    "name": "tokenId",
                    "type": "uint256"
                }
            ],
            "name": "ownerOf",
            "outputs": [
                {
                    "internalType": "address",
                    "name": "",
                    "type": "address"
                }
            ],
            "stateMutability": "view",
            "type": "function"
        },
        {
            "inputs": [],
            "name": "renounceOwnership",
            "outputs": [],
            "stateMutability": "nonpayable",
            "type": "function"
        },
        {
            "inputs": [
                {
                    "internalType": "address",
                    "name": "from",
                    "type": "address"
                },
                {
                    "internalType": "address",
                    "name": "to",
                    "type": "address"
                },
                {
                    "internalType": "uint256",
                    "name": "tokenId",
                    "type": "uint256"
                }
            ],
            "name": "safeTransferFrom",
            "outputs": [],
            "stateMutability": "nonpayable",
            "type": "function"
        },
        {
            "inputs": [
                {
                    "internalType": "address",
                    "name": "from",
                    "type": "address"
                },
                {
                    "internalType": "address",
                    "name": "to",
                    "type": "address"
                },
                {
                    "internalType": "uint256",
                    "name": "tokenId",
                    "type": "uint256"
                },
                {
                    "internalType": "bytes",
                    "name": "_data",
                    "type": "bytes"
                }
            ],
            "name": "safeTransferFrom",
            "outputs": [],
            "stateMutability": "nonpayable",
            "type": "function"
        },
        {
            "inputs": [],
            "name": "saleIsActive",
            "outputs": [
                {
                    "internalType": "bool",
                    "name": "",
                    "type": "bool"
                }
            ],
            "stateMutability": "view",
            "type": "function"
        },
        {
            "inputs": [
                {
                    "internalType": "address",
                    "name": "operator",
                    "type": "address"
                },
                {
                    "internalType": "bool",
                    "name": "approved",
                    "type": "bool"
                }
            ],
            "name": "setApprovalForAll",
            "outputs": [],
            "stateMutability": "nonpayable",
            "type": "function"
        },
        {
            "inputs": [
                {
                    "internalType": "bytes4",
                    "name": "interfaceId",
                    "type": "bytes4"
                }
            ],
            "name": "supportsInterface",
            "outputs": [
                {
                    "internalType": "bool",
                    "name": "",
                    "type": "bool"
                }
            ],
            "stateMutability": "view",
            "type": "function"
        },
        {
            "inputs": [],
            "name": "symbol",
            "outputs": [
                {
                    "internalType": "string",
                    "name": "",
                    "type": "string"
                }
            ],
            "stateMutability": "view",
            "type": "function"
        },
        {
            "inputs": [
                {
                    "internalType": "uint256",
                    "name": "index",
                    "type": "uint256"
                }
            ],
            "name": "tokenByIndex",
            "outputs": [
                {
                    "internalType": "uint256",
                    "name": "",
                    "type": "uint256"
                }
            ],
            "stateMutability": "view",
            "type": "function"
        },
        {
            "inputs": [
                {
                    "internalType": "address",
                    "name": "owner",
                    "type": "address"
                },
                {
                    "internalType": "uint256",
                    "name": "index",
                    "type": "uint256"
                }
            ],
            "name": "tokenOfOwnerByIndex",
            "outputs": [
                {
                    "internalType": "uint256",
                    "name": "",
                    "type": "uint256"
                }
            ],
            "stateMutability": "view",
            "type": "function"
        },
        {
            "inputs": [],
            "name": "totalSupply",
            "outputs": [
                {
                    "internalType": "uint256",
                    "name": "",
                    "type": "uint256"
                }
            ],
            "stateMutability": "view",
            "type": "function"
        },
        {
            "inputs": [
                {
                    "internalType": "address",
                    "name": "from",
                    "type": "address"
                },
                {
                    "internalType": "address",
                    "name": "to",
                    "type": "address"
                },
                {
                    "internalType": "uint256",
                    "name": "tokenId",
                    "type": "uint256"
                }
            ],
            "name": "transferFrom",
            "outputs": [],
            "stateMutability": "nonpayable",
            "type": "function"
        },
        {
            "inputs": [
                {
                    "internalType": "address",
                    "name": "newOwner",
                    "type": "address"
                }
            ],
            "name": "transferOwnership",
            "outputs": [],
            "stateMutability": "nonpayable",
            "type": "function"
        },
        {
            "inputs": [
                {
                    "internalType": "uint256",
                    "name": "_quantity",
                    "type": "uint256"
                }
            ],
            "name": "mint",
            "outputs": [],
            "stateMutability": "payable",
            "type": "function"
        },
        {
            "inputs": [
                {
                    "internalType": "uint256",
                    "name": "_quantity",
                    "type": "uint256"
                }
            ],
            "name": "freeMint",
            "outputs": [],
            "stateMutability": "nonpayable",
            "type": "function"
        },
        {
            "inputs": [
                {
                    "internalType": "address",
                    "name": "_owner",
                    "type": "address"
                }
            ],
            "name": "walletOfOwner",
            "outputs": [
                {
                    "internalType": "uint256[]",
                    "name": "",
                    "type": "uint256[]"
                }
            ],
            "stateMutability": "view",
            "type": "function"
        },
        {
            "inputs": [
                {
                    "internalType": "uint256",
                    "name": "_tokenId",
                    "type": "uint256"
                }
            ],
            "name": "tokenURI",
            "outputs": [
                {
                    "internalType": "string",
                    "name": "",
                    "type": "string"
                }
            ],
            "stateMutability": "view",
            "type": "function"
        },
        {
            "inputs": [
                {
                    "internalType": "uint256",
                    "name": "_newCost",
                    "type": "uint256"
                }
            ],
            "name": "setCost",
            "outputs": [],
            "stateMutability": "nonpayable",
            "type": "function"
        },
        {
            "inputs": [
                {
                    "internalType": "uint256",
                    "name": "_newMaxPerTxDuringMint",
                    "type": "uint256"
                }
            ],
            "name": "setmaxMintAmount",
            "outputs": [],
            "stateMutability": "nonpayable",
            "type": "function"
        },
        {
            "inputs": [
                {
                    "internalType": "string",
                    "name": "_newBaseURI",
                    "type": "string"
                }
            ],
            "name": "setBaseURI",
            "outputs": [],
            "stateMutability": "nonpayable",
            "type": "function"
        },
        {
            "inputs": [
                {
                    "internalType": "string",
                    "name": "_newBaseExtension",
                    "type": "string"
                }
            ],
            "name": "setBaseExtension",
            "outputs": [],
            "stateMutability": "nonpayable",
            "type": "function"
        },
        {
            "inputs": [],
            "name": "flipSale",
            "outputs": [],
            "stateMutability": "nonpayable",
            "type": "function"
        },
        {
            "inputs": [],
            "name": "withdraw",
            "outputs": [],
            "stateMutability": "payable",
            "type": "function"
        }
    ],
    "bytecode": "0x60806040526040518060400160405280600581526020017f2e6a736f6e000000000000000000000000000000000000000000000000000000815250600c90805190602001906200005192919062000233565b506064600d556032600e556005600f55601460105560026011556618de76816d80006012556000601360006101000a81548160ff0219169083151502179055503480156200009e57600080fd5b506040518060400160405280600781526020017f52504720343034000000000000000000000000000000000000000000000000008152506040518060400160405280600681526020017f525047343034000000000000000000000000000000000000000000000000000081525081600090805190602001906200012392919062000233565b5080600190805190602001906200013c92919062000233565b5050506200015f620001536200016560201b60201c565b6200016d60201b60201c565b62000347565b600033905090565b6000600a60009054906101000a900473ffffffffffffffffffffffffffffffffffffffff16905081600a60006101000a81548173ffffffffffffffffffffffffffffffffffffffff021916908373ffffffffffffffffffffffffffffffffffffffff1602179055508173ffffffffffffffffffffffffffffffffffffffff168173ffffffffffffffffffffffffffffffffffffffff167f8be0079c531659141344cd1fd0a4f28419497f9722a3daafe3b4186f6b6457e060405160405180910390a35050565b828054620002419062000312565b90600052602060002090601f016020900481019282620002655760008555620002b1565b82601f106200028057805160ff1916838001178555620002b1565b82800160010185558215620002b1579182015b82811115620002b057825182559160200191906001019062000293565b5b509050620002c09190620002c4565b5090565b5b80821115620002df576000816000905550600101620002c5565b5090565b7f4e487b7100000000000000000000000000000000000000000000000000000000600052602260045260246000fd5b600060028204905060018216806200032b57607f821691505b602082108103620003415762000340620002e3565b5b50919050565b614ad180620003576000396000f3fe6080604052600436106102255760003560e01c80637ba5e62111610123578063b88d4fde116100ab578063da3ef23f1161006f578063da3ef23f146107ed578063e985e9c514610816578063eb8d244414610853578063f2fde38b1461087e578063fbbf8cc3146108a757610225565b8063b88d4fde14610706578063c66828621461072f578063c87b56dd1461075a578063d3464cbd14610797578063d5abeb01146107c257610225565b80638da5cb5b116100f25780638da5cb5b1461062e57806395d89b411461065957806396b1020114610684578063a0712d68146106c1578063a22cb465146106dd57610225565b80637ba5e6211461059a5780637c928fe9146105b15780637f00c7a6146105da5780638bc35c2f1461060357610225565b80633ccfd60b116101b15780634f6ccce7116101755780634f6ccce7146104a357806355f804b3146104e05780636352211e1461050957806370a0823114610546578063715018a61461058357610225565b80633ccfd60b146103df57806342842e0e146103e9578063438b63001461041257806344a0d68a1461044f578063475133341461047857610225565b806313faede6116101f857806313faede6146102f857806318160ddd1461032357806323b872dd1461034e5780632e0fd6eb146103775780632f745c59146103a257610225565b806301ffc9a71461022a57806306fdde0314610267578063081812fc14610292578063095ea7b3146102cf575b600080fd5b34801561023657600080fd5b50610251600480360381019061024c9190613108565b6108e4565b60405161025e9190613150565b60405180910390f35b34801561027357600080fd5b5061027c61095e565b6040516102899190613204565b60405180910390f35b34801561029e57600080fd5b506102b960048036038101906102b4919061325c565b6109f0565b6040516102c691906132ca565b60405180910390f35b3480156102db57600080fd5b506102f660048036038101906102f19190613311565b610a75565b005b34801561030457600080fd5b5061030d610b8c565b60405161031a9190613360565b60405180910390f35b34801561032f57600080fd5b50610338610b92565b6040516103459190613360565b60405180910390f35b34801561035a57600080fd5b506103756004803603810190610370919061337b565b610b9f565b005b34801561038357600080fd5b5061038c610bff565b6040516103999190613360565b60405180910390f35b3480156103ae57600080fd5b506103c960048036038101906103c49190613311565b610c05565b6040516103d69190613360565b60405180910390f35b6103e7610caa565b005b3480156103f557600080fd5b50610410600480360381019061040b919061337b565b610da6565b005b34801561041e57600080fd5b50610439600480360381019061043491906133ce565b610dc6565b60405161044691906134b9565b60405180910390f35b34801561045b57600080fd5b506104766004803603810190610471919061325c565b610e74565b005b34801561048457600080fd5b5061048d610efa565b60405161049a9190613360565b60405180910390f35b3480156104af57600080fd5b506104ca60048036038101906104c5919061325c565b610f00565b6040516104d79190613360565b60405180910390f35b3480156104ec57600080fd5b5061050760048036038101906105029190613610565b610f71565b005b34801561051557600080fd5b50610530600480360381019061052b919061325c565b611007565b60405161053d91906132ca565b60405180910390f35b34801561055257600080fd5b5061056d600480360381019061056891906133ce565b6110b8565b60405161057a9190613360565b60405180910390f35b34801561058f57600080fd5b5061059861116f565b005b3480156105a657600080fd5b506105af6111f7565b005b3480156105bd57600080fd5b506105d860048036038101906105d3919061325c565b61129f565b005b3480156105e657600080fd5b5061060160048036038101906105fc919061325c565b61151a565b005b34801561060f57600080fd5b506106186115a0565b6040516106259190613360565b60405180910390f35b34801561063a57600080fd5b506106436115a6565b60405161065091906132ca565b60405180910390f35b34801561066557600080fd5b5061066e6115d0565b60405161067b9190613204565b60405180910390f35b34801561069057600080fd5b506106ab60048036038101906106a691906133ce565b611662565b6040516106b89190613360565b60405180910390f35b6106db60048036038101906106d6919061325c565b61167a565b005b3480156106e957600080fd5b5061070460048036038101906106ff9190613685565b611996565b005b34801561071257600080fd5b5061072d60048036038101906107289190613766565b6119ac565b005b34801561073b57600080fd5b50610744611a0e565b6040516107519190613204565b60405180910390f35b34801561076657600080fd5b50610781600480360381019061077c919061325c565b611a9c565b60405161078e9190613204565b60405180910390f35b3480156107a357600080fd5b506107ac611b46565b6040516107b99190613360565b60405180910390f35b3480156107ce57600080fd5b506107d7611b4c565b6040516107e49190613360565b60405180910390f35b3480156107f957600080fd5b50610814600480360381019061080f9190613610565b611b52565b005b34801561082257600080fd5b5061083d600480360381019061083891906137e9565b611be8565b60405161084a9190613150565b60405180910390f35b34801561085f57600080fd5b50610868611c7c565b6040516108759190613150565b60405180910390f35b34801561088a57600080fd5b506108a560048036038101906108a091906133ce565b611c8f565b005b3480156108b357600080fd5b506108ce60048036038101906108c991906133ce565b611d86565b6040516108db9190613360565b60405180910390f35b60007f780e9d63000000000000000000000000000000000000000000000000000000007bffffffffffffffffffffffffffffffffffffffffffffffffffffffff1916827bffffffffffffffffffffffffffffffffffffffffffffffffffffffff19161480610957575061095682611d9e565b5b9050919050565b60606000805461096d90613858565b80601f016020809104026020016040519081016040528092919081815260200182805461099990613858565b80156109e65780601f106109bb576101008083540402835291602001916109e6565b820191906000526020600020905b8154815290600101906020018083116109c957829003601f168201915b5050505050905090565b60006109fb82611e80565b610a3a576040517f08c379a0000000000000000000000000000000000000000000000000000000008152600401610a31906138fb565b60405180910390fd5b6004600083815260200190815260200160002060009054906101000a900473ffffffffffffffffffffffffffffffffffffffff169050919050565b6000610a8082611007565b90508073ffffffffffffffffffffffffffffffffffffffff168373ffffffffffffffffffffffffffffffffffffffff1603610af0576040517f08c379a0000000000000000000000000000000000000000000000000000000008152600401610ae79061398d565b60405180910390fd5b8073ffffffffffffffffffffffffffffffffffffffff16610b0f611eec565b73ffffffffffffffffffffffffffffffffffffffff161480610b3e5750610b3d81610b38611eec565b611be8565b5b610b7d576040517f08c379a0000000000000000000000000000000000000000000000000000000008152600401610b7490613a1f565b60405180910390fd5b610b878383611ef4565b505050565b60125481565b6000600880549050905090565b610bb0610baa611eec565b82611fad565b610bef576040517f08c379a0000000000000000000000000000000000000000000000000000000008152600401610be690613ab1565b60405180910390fd5b610bfa83838361208b565b505050565b60115481565b6000610c10836110b8565b8210610c51576040517f08c379a0000000000000000000000000000000000000000000000000000000008152600401610c4890613b43565b60405180910390fd5b600660008473ffffffffffffffffffffffffffffffffffffffff1673ffffffffffffffffffffffffffffffffffffffff168152602001908152602001600020600083815260200190815260200160002054905092915050565b610cb2611eec565b73ffffffffffffffffffffffffffffffffffffffff16610cd06115a6565b73ffffffffffffffffffffffffffffffffffffffff1614610d26576040517f08c379a0000000000000000000000000000000000000000000000000000000008152600401610d1d90613baf565b60405180910390fd5b6000610d306115a6565b73ffffffffffffffffffffffffffffffffffffffff1647604051610d5390613c00565b60006040518083038185875af1925050503d8060008114610d90576040519150601f19603f3d011682016040523d82523d6000602084013e610d95565b606091505b5050905080610da357600080fd5b50565b610dc1838383604051806020016040528060008152506119ac565b505050565b60606000610dd3836110b8565b905060008167ffffffffffffffff811115610df157610df06134e5565b5b604051908082528060200260200182016040528015610e1f5781602001602082028036833780820191505090505b50905060005b82811015610e6957610e378582610c05565b828281518110610e4a57610e49613c15565b5b6020026020010181815250508080610e6190613c73565b915050610e25565b508092505050919050565b610e7c611eec565b73ffffffffffffffffffffffffffffffffffffffff16610e9a6115a6565b73ffffffffffffffffffffffffffffffffffffffff1614610ef0576040517f08c379a0000000000000000000000000000000000000000000000000000000008152600401610ee790613baf565b60405180910390fd5b8060128190555050565b600e5481565b6000610f0a610b92565b8210610f4b576040517f08c379a0000000000000000000000000000000000000000000000000000000008152600401610f4290613d2d565b60405180910390fd5b60088281548110610f5f57610f5e613c15565b5b90600052602060002001549050919050565b610f79611eec565b73ffffffffffffffffffffffffffffffffffffffff16610f976115a6565b73ffffffffffffffffffffffffffffffffffffffff1614610fed576040517f08c379a0000000000000000000000000000000000000000000000000000000008152600401610fe490613baf565b60405180910390fd5b80600b9080519060200190611003929190612ff9565b5050565b6000806002600084815260200190815260200160002060009054906101000a900473ffffffffffffffffffffffffffffffffffffffff169050600073ffffffffffffffffffffffffffffffffffffffff168173ffffffffffffffffffffffffffffffffffffffff16036110af576040517f08c379a00000000000000000000000000000000000000000000000000000000081526004016110a690613dbf565b60405180910390fd5b80915050919050565b60008073ffffffffffffffffffffffffffffffffffffffff168273ffffffffffffffffffffffffffffffffffffffff1603611128576040517f08c379a000000000000000000000000000000000000000000000000000000000815260040161111f90613e51565b60405180910390fd5b600360008373ffffffffffffffffffffffffffffffffffffffff1673ffffffffffffffffffffffffffffffffffffffff168152602001908152602001600020549050919050565b611177611eec565b73ffffffffffffffffffffffffffffffffffffffff166111956115a6565b73ffffffffffffffffffffffffffffffffffffffff16146111eb576040517f08c379a00000000000000000000000000000000000000000000000000000000081526004016111e290613baf565b60405180910390fd5b6111f560006122f1565b565b6111ff611eec565b73ffffffffffffffffffffffffffffffffffffffff1661121d6115a6565b73ffffffffffffffffffffffffffffffffffffffff1614611273576040517f08c379a000000000000000000000000000000000000000000000000000000000815260040161126a90613baf565b60405180910390fd5b601360009054906101000a900460ff1615601360006101000a81548160ff021916908315150217905550565b601360009054906101000a900460ff166112ee576040517f08c379a00000000000000000000000000000000000000000000000000000000081526004016112e590613ebd565b60405180910390fd5b3373ffffffffffffffffffffffffffffffffffffffff163273ffffffffffffffffffffffffffffffffffffffff161461135c576040517f08c379a000000000000000000000000000000000000000000000000000000000815260040161135390613f29565b60405180910390fd5b6000611366610b92565b9050600082116113ab576040517f08c379a00000000000000000000000000000000000000000000000000000000081526004016113a290613f95565b60405180910390fd5b81816113b79190613fb5565b600e5410156113fb576040517f08c379a00000000000000000000000000000000000000000000000000000000081526004016113f290614057565b60405180910390fd5b6000601460003373ffffffffffffffffffffffffffffffffffffffff1673ffffffffffffffffffffffffffffffffffffffff168152602001908152602001600020549050601154838261144e9190613fb5565b111561148f576040517f08c379a0000000000000000000000000000000000000000000000000000000008152600401611486906140e9565b60405180910390fd5b828161149b9190613fb5565b601460003373ffffffffffffffffffffffffffffffffffffffff1673ffffffffffffffffffffffffffffffffffffffff168152602001908152602001600020819055506000600190505b838111611514576115013382856114fc9190613fb5565b6123b7565b808061150c90613c73565b9150506114e5565b50505050565b611522611eec565b73ffffffffffffffffffffffffffffffffffffffff166115406115a6565b73ffffffffffffffffffffffffffffffffffffffff1614611596576040517f08c379a000000000000000000000000000000000000000000000000000000000815260040161158d90613baf565b60405180910390fd5b80600f8190555050565b60105481565b6000600a60009054906101000a900473ffffffffffffffffffffffffffffffffffffffff16905090565b6060600180546115df90613858565b80601f016020809104026020016040519081016040528092919081815260200182805461160b90613858565b80156116585780601f1061162d57610100808354040283529160200191611658565b820191906000526020600020905b81548152906001019060200180831161163b57829003601f168201915b5050505050905090565b60146020528060005260406000206000915090505481565b601360009054906101000a900460ff166116c9576040517f08c379a00000000000000000000000000000000000000000000000000000000081526004016116c090613ebd565b60405180910390fd5b3373ffffffffffffffffffffffffffffffffffffffff163273ffffffffffffffffffffffffffffffffffffffff1614611737576040517f08c379a000000000000000000000000000000000000000000000000000000000815260040161172e90613f29565b60405180910390fd5b6000611741610b92565b905060008211611786576040517f08c379a000000000000000000000000000000000000000000000000000000000815260040161177d90613f95565b60405180910390fd5b816012546117949190614109565b3410156117d6576040517f08c379a00000000000000000000000000000000000000000000000000000000081526004016117cd906141af565b60405180910390fd5b81816117e29190613fb5565b600d541015611826576040517f08c379a000000000000000000000000000000000000000000000000000000000815260040161181d9061421b565b60405180910390fd5b6000601560003373ffffffffffffffffffffffffffffffffffffffff1673ffffffffffffffffffffffffffffffffffffffff16815260200190815260200160002054905060105483826118799190613fb5565b11156118ba576040517f08c379a00000000000000000000000000000000000000000000000000000000081526004016118b190614287565b60405180910390fd5b6000831180156118cc5750600f548311155b61190b576040517f08c379a0000000000000000000000000000000000000000000000000000000008152600401611902906142f3565b60405180910390fd5b82816119179190613fb5565b601560003373ffffffffffffffffffffffffffffffffffffffff1673ffffffffffffffffffffffffffffffffffffffff168152602001908152602001600020819055506000600190505b8381116119905761197d3382856119789190613fb5565b6123b7565b808061198890613c73565b915050611961565b50505050565b6119a86119a1611eec565b83836123d5565b5050565b6119bd6119b7611eec565b83611fad565b6119fc576040517f08c379a00000000000000000000000000000000000000000000000000000000081526004016119f390613ab1565b60405180910390fd5b611a0884848484612541565b50505050565b600c8054611a1b90613858565b80601f0160208091040260200160405190810160405280929190818152602001828054611a4790613858565b8015611a945780601f10611a6957610100808354040283529160200191611a94565b820191906000526020600020905b815481529060010190602001808311611a7757829003601f168201915b505050505081565b6060611aa782611e80565b611ae6576040517f08c379a0000000000000000000000000000000000000000000000000000000008152600401611add90614385565b60405180910390fd5b6000611af061259d565b90506000815111611b105760405180602001604052806000815250611b3e565b80611b1a8461262f565b600c604051602001611b2e93929190614475565b6040516020818303038152906040525b915050919050565b600f5481565b600d5481565b611b5a611eec565b73ffffffffffffffffffffffffffffffffffffffff16611b786115a6565b73ffffffffffffffffffffffffffffffffffffffff1614611bce576040517f08c379a0000000000000000000000000000000000000000000000000000000008152600401611bc590613baf565b60405180910390fd5b80600c9080519060200190611be4929190612ff9565b5050565b6000600560008473ffffffffffffffffffffffffffffffffffffffff1673ffffffffffffffffffffffffffffffffffffffff16815260200190815260200160002060008373ffffffffffffffffffffffffffffffffffffffff1673ffffffffffffffffffffffffffffffffffffffff16815260200190815260200160002060009054906101000a900460ff16905092915050565b601360009054906101000a900460ff1681565b611c97611eec565b73ffffffffffffffffffffffffffffffffffffffff16611cb56115a6565b73ffffffffffffffffffffffffffffffffffffffff1614611d0b576040517f08c379a0000000000000000000000000000000000000000000000000000000008152600401611d0290613baf565b60405180910390fd5b600073ffffffffffffffffffffffffffffffffffffffff168173ffffffffffffffffffffffffffffffffffffffff1603611d7a576040517f08c379a0000000000000000000000000000000000000000000000000000000008152600401611d7190614518565b60405180910390fd5b611d83816122f1565b50565b60156020528060005260406000206000915090505481565b60007f80ac58cd000000000000000000000000000000000000000000000000000000007bffffffffffffffffffffffffffffffffffffffffffffffffffffffff1916827bffffffffffffffffffffffffffffffffffffffffffffffffffffffff19161480611e6957507f5b5e139f000000000000000000000000000000000000000000000000000000007bffffffffffffffffffffffffffffffffffffffffffffffffffffffff1916827bffffffffffffffffffffffffffffffffffffffffffffffffffffffff1916145b80611e795750611e788261278f565b5b9050919050565b60008073ffffffffffffffffffffffffffffffffffffffff166002600084815260200190815260200160002060009054906101000a900473ffffffffffffffffffffffffffffffffffffffff1673ffffffffffffffffffffffffffffffffffffffff1614159050919050565b600033905090565b816004600083815260200190815260200160002060006101000a81548173ffffffffffffffffffffffffffffffffffffffff021916908373ffffffffffffffffffffffffffffffffffffffff160217905550808273ffffffffffffffffffffffffffffffffffffffff16611f6783611007565b73ffffffffffffffffffffffffffffffffffffffff167f8c5be1e5ebec7d5bd14f71427d1e84f3dd0314c0f7b2291e5b200ac8c7c3b92560405160405180910390a45050565b6000611fb882611e80565b611ff7576040517f08c379a0000000000000000000000000000000000000000000000000000000008152600401611fee906145aa565b60405180910390fd5b600061200283611007565b90508073ffffffffffffffffffffffffffffffffffffffff168473ffffffffffffffffffffffffffffffffffffffff16148061204457506120438185611be8565b5b8061208257508373ffffffffffffffffffffffffffffffffffffffff1661206a846109f0565b73ffffffffffffffffffffffffffffffffffffffff16145b91505092915050565b8273ffffffffffffffffffffffffffffffffffffffff166120ab82611007565b73ffffffffffffffffffffffffffffffffffffffff1614612101576040517f08c379a00000000000000000000000000000000000000000000000000000000081526004016120f89061463c565b60405180910390fd5b600073ffffffffffffffffffffffffffffffffffffffff168273ffffffffffffffffffffffffffffffffffffffff1603612170576040517f08c379a0000000000000000000000000000000000000000000000000000000008152600401612167906146ce565b60405180910390fd5b61217b8383836127f9565b612186600082611ef4565b6001600360008573ffffffffffffffffffffffffffffffffffffffff1673ffffffffffffffffffffffffffffffffffffffff16815260200190815260200160002060008282546121d691906146ee565b925050819055506001600360008473ffffffffffffffffffffffffffffffffffffffff1673ffffffffffffffffffffffffffffffffffffffff168152602001908152602001600020600082825461222d9190613fb5565b92505081905550816002600083815260200190815260200160002060006101000a81548173ffffffffffffffffffffffffffffffffffffffff021916908373ffffffffffffffffffffffffffffffffffffffff160217905550808273ffffffffffffffffffffffffffffffffffffffff168473ffffffffffffffffffffffffffffffffffffffff167fddf252ad1be2c89b69c2b068fc378daa952ba7f163c4a11628f55a4df523b3ef60405160405180910390a46122ec83838361290b565b505050565b6000600a60009054906101000a900473ffffffffffffffffffffffffffffffffffffffff16905081600a60006101000a81548173ffffffffffffffffffffffffffffffffffffffff021916908373ffffffffffffffffffffffffffffffffffffffff1602179055508173ffffffffffffffffffffffffffffffffffffffff168173ffffffffffffffffffffffffffffffffffffffff167f8be0079c531659141344cd1fd0a4f28419497f9722a3daafe3b4186f6b6457e060405160405180910390a35050565b6123d1828260405180602001604052806000815250612910565b5050565b8173ffffffffffffffffffffffffffffffffffffffff168373ffffffffffffffffffffffffffffffffffffffff1603612443576040517f08c379a000000000000000000000000000000000000000000000000000000000815260040161243a9061476e565b60405180910390fd5b80600560008573ffffffffffffffffffffffffffffffffffffffff1673ffffffffffffffffffffffffffffffffffffffff16815260200190815260200160002060008473ffffffffffffffffffffffffffffffffffffffff1673ffffffffffffffffffffffffffffffffffffffff16815260200190815260200160002060006101000a81548160ff0219169083151502179055508173ffffffffffffffffffffffffffffffffffffffff168373ffffffffffffffffffffffffffffffffffffffff167f17307eab39ab6107e8899845ad3d59bd9653f200f220920489ca2b5937696c31836040516125349190613150565b60405180910390a3505050565b61254c84848461208b565b6125588484848461296b565b612597576040517f08c379a000000000000000000000000000000000000000000000000000000000815260040161258e90614800565b60405180910390fd5b50505050565b6060600b80546125ac90613858565b80601f01602080910402602001604051908101604052809291908181526020018280546125d890613858565b80156126255780601f106125fa57610100808354040283529160200191612625565b820191906000526020600020905b81548152906001019060200180831161260857829003601f168201915b5050505050905090565b606060008203612676576040518060400160405280600181526020017f3000000000000000000000000000000000000000000000000000000000000000815250905061278a565b600082905060005b600082146126a857808061269190613c73565b915050600a826126a1919061484f565b915061267e565b60008167ffffffffffffffff8111156126c4576126c36134e5565b5b6040519080825280601f01601f1916602001820160405280156126f65781602001600182028036833780820191505090505b5090505b600085146127835760018261270f91906146ee565b9150600a8561271e9190614880565b603061272a9190613fb5565b60f81b8183815181106127405761273f613c15565b5b60200101907effffffffffffffffffffffffffffffffffffffffffffffffffffffffffffff1916908160001a905350600a8561277c919061484f565b94506126fa565b8093505050505b919050565b60007f01ffc9a7000000000000000000000000000000000000000000000000000000007bffffffffffffffffffffffffffffffffffffffffffffffffffffffff1916827bffffffffffffffffffffffffffffffffffffffffffffffffffffffff1916149050919050565b612804838383612af2565b600073ffffffffffffffffffffffffffffffffffffffff168373ffffffffffffffffffffffffffffffffffffffff16036128465761284181612af7565b612885565b8173ffffffffffffffffffffffffffffffffffffffff168373ffffffffffffffffffffffffffffffffffffffff1614612884576128838382612b40565b5b5b600073ffffffffffffffffffffffffffffffffffffffff168273ffffffffffffffffffffffffffffffffffffffff16036128c7576128c281612cad565b612906565b8273ffffffffffffffffffffffffffffffffffffffff168273ffffffffffffffffffffffffffffffffffffffff1614612905576129048282612d7e565b5b5b505050565b505050565b61291a8383612dfd565b612927600084848461296b565b612966576040517f08c379a000000000000000000000000000000000000000000000000000000000815260040161295d90614800565b60405180910390fd5b505050565b600061298c8473ffffffffffffffffffffffffffffffffffffffff16612fd6565b15612ae5578373ffffffffffffffffffffffffffffffffffffffff1663150b7a026129b5611eec565b8786866040518563ffffffff1660e01b81526004016129d79493929190614906565b6020604051808303816000875af1925050508015612a1357506040513d601f19601f82011682018060405250810190612a109190614967565b60015b612a95573d8060008114612a43576040519150601f19603f3d011682016040523d82523d6000602084013e612a48565b606091505b506000815103612a8d576040517f08c379a0000000000000000000000000000000000000000000000000000000008152600401612a8490614800565b60405180910390fd5b805181602001fd5b63150b7a0260e01b7bffffffffffffffffffffffffffffffffffffffffffffffffffffffff1916817bffffffffffffffffffffffffffffffffffffffffffffffffffffffff191614915050612aea565b600190505b949350505050565b505050565b6008805490506009600083815260200190815260200160002081905550600881908060018154018082558091505060019003906000526020600020016000909190919091505550565b60006001612b4d846110b8565b612b5791906146ee565b9050600060076000848152602001908152602001600020549050818114612c3c576000600660008673ffffffffffffffffffffffffffffffffffffffff1673ffffffffffffffffffffffffffffffffffffffff168152602001908152602001600020600084815260200190815260200160002054905080600660008773ffffffffffffffffffffffffffffffffffffffff1673ffffffffffffffffffffffffffffffffffffffff168152602001908152602001600020600084815260200190815260200160002081905550816007600083815260200190815260200160002081905550505b6007600084815260200190815260200160002060009055600660008573ffffffffffffffffffffffffffffffffffffffff1673ffffffffffffffffffffffffffffffffffffffff16815260200190815260200160002060008381526020019081526020016000206000905550505050565b60006001600880549050612cc191906146ee565b9050600060096000848152602001908152602001600020549050600060088381548110612cf157612cf0613c15565b5b906000526020600020015490508060088381548110612d1357612d12613c15565b5b906000526020600020018190555081600960008381526020019081526020016000208190555060096000858152602001908152602001600020600090556008805480612d6257612d61614994565b5b6001900381819060005260206000200160009055905550505050565b6000612d89836110b8565b905081600660008573ffffffffffffffffffffffffffffffffffffffff1673ffffffffffffffffffffffffffffffffffffffff168152602001908152602001600020600083815260200190815260200160002081905550806007600084815260200190815260200160002081905550505050565b600073ffffffffffffffffffffffffffffffffffffffff168273ffffffffffffffffffffffffffffffffffffffff1603612e6c576040517f08c379a0000000000000000000000000000000000000000000000000000000008152600401612e6390614a0f565b60405180910390fd5b612e7581611e80565b15612eb5576040517f08c379a0000000000000000000000000000000000000000000000000000000008152600401612eac90614a7b565b60405180910390fd5b612ec1600083836127f9565b6001600360008473ffffffffffffffffffffffffffffffffffffffff1673ffffffffffffffffffffffffffffffffffffffff1681526020019081526020016000206000828254612f119190613fb5565b92505081905550816002600083815260200190815260200160002060006101000a81548173ffffffffffffffffffffffffffffffffffffffff021916908373ffffffffffffffffffffffffffffffffffffffff160217905550808273ffffffffffffffffffffffffffffffffffffffff16600073ffffffffffffffffffffffffffffffffffffffff167fddf252ad1be2c89b69c2b068fc378daa952ba7f163c4a11628f55a4df523b3ef60405160405180910390a4612fd26000838361290b565b5050565b6000808273ffffffffffffffffffffffffffffffffffffffff163b119050919050565b82805461300590613858565b90600052602060002090601f016020900481019282613027576000855561306e565b82601f1061304057805160ff191683800117855561306e565b8280016001018555821561306e579182015b8281111561306d578251825591602001919060010190613052565b5b50905061307b919061307f565b5090565b5b80821115613098576000816000905550600101613080565b5090565b6000604051905090565b600080fd5b600080fd5b60007fffffffff0000000000000000000000000000000000000000000000000000000082169050919050565b6130e5816130b0565b81146130f057600080fd5b50565b600081359050613102816130dc565b92915050565b60006020828403121561311e5761311d6130a6565b5b600061312c848285016130f3565b91505092915050565b60008115159050919050565b61314a81613135565b82525050565b60006020820190506131656000830184613141565b92915050565b600081519050919050565b600082825260208201905092915050565b60005b838110156131a557808201518184015260208101905061318a565b838111156131b4576000848401525b50505050565b6000601f19601f8301169050919050565b60006131d68261316b565b6131e08185613176565b93506131f0818560208601613187565b6131f9816131ba565b840191505092915050565b6000602082019050818103600083015261321e81846131cb565b905092915050565b6000819050919050565b61323981613226565b811461324457600080fd5b50565b60008135905061325681613230565b92915050565b600060208284031215613272576132716130a6565b5b600061328084828501613247565b91505092915050565b600073ffffffffffffffffffffffffffffffffffffffff82169050919050565b60006132b482613289565b9050919050565b6132c4816132a9565b82525050565b60006020820190506132df60008301846132bb565b92915050565b6132ee816132a9565b81146132f957600080fd5b50565b60008135905061330b816132e5565b92915050565b60008060408385031215613328576133276130a6565b5b6000613336858286016132fc565b925050602061334785828601613247565b9150509250929050565b61335a81613226565b82525050565b60006020820190506133756000830184613351565b92915050565b600080600060608486031215613394576133936130a6565b5b60006133a2868287016132fc565b93505060206133b3868287016132fc565b92505060406133c486828701613247565b9150509250925092565b6000602082840312156133e4576133e36130a6565b5b60006133f2848285016132fc565b91505092915050565b600081519050919050565b600082825260208201905092915050565b6000819050602082019050919050565b61343081613226565b82525050565b60006134428383613427565b60208301905092915050565b6000602082019050919050565b6000613466826133fb565b6134708185613406565b935061347b83613417565b8060005b838110156134ac5781516134938882613436565b975061349e8361344e565b92505060018101905061347f565b5085935050505092915050565b600060208201905081810360008301526134d3818461345b565b905092915050565b600080fd5b600080fd5b7f4e487b7100000000000000000000000000000000000000000000000000000000600052604160045260246000fd5b61351d826131ba565b810181811067ffffffffffffffff8211171561353c5761353b6134e5565b5b80604052505050565b600061354f61309c565b905061355b8282613514565b919050565b600067ffffffffffffffff82111561357b5761357a6134e5565b5b613584826131ba565b9050602081019050919050565b82818337600083830152505050565b60006135b36135ae84613560565b613545565b9050828152602081018484840111156135cf576135ce6134e0565b5b6135da848285613591565b509392505050565b600082601f8301126135f7576135f66134db565b5b81356136078482602086016135a0565b91505092915050565b600060208284031215613626576136256130a6565b5b600082013567ffffffffffffffff811115613644576136436130ab565b5b613650848285016135e2565b91505092915050565b61366281613135565b811461366d57600080fd5b50565b60008135905061367f81613659565b92915050565b6000806040838503121561369c5761369b6130a6565b5b60006136aa858286016132fc565b92505060206136bb85828601613670565b9150509250929050565b600067ffffffffffffffff8211156136e0576136df6134e5565b5b6136e9826131ba565b9050602081019050919050565b6000613709613704846136c5565b613545565b905082815260208101848484011115613725576137246134e0565b5b613730848285613591565b509392505050565b600082601f83011261374d5761374c6134db565b5b813561375d8482602086016136f6565b91505092915050565b600080600080608085870312156137805761377f6130a6565b5b600061378e878288016132fc565b945050602061379f878288016132fc565b93505060406137b087828801613247565b925050606085013567ffffffffffffffff8111156137d1576137d06130ab565b5b6137dd87828801613738565b91505092959194509250565b60008060408385031215613800576137ff6130a6565b5b600061380e858286016132fc565b925050602061381f858286016132fc565b9150509250929050565b7f4e487b7100000000000000000000000000000000000000000000000000000000600052602260045260246000fd5b6000600282049050600182168061387057607f821691505b60208210810361388357613882613829565b5b50919050565b7f4552433732313a20617070726f76656420717565727920666f72206e6f6e657860008201527f697374656e7420746f6b656e0000000000000000000000000000000000000000602082015250565b60006138e5602c83613176565b91506138f082613889565b604082019050919050565b60006020820190508181036000830152613914816138d8565b9050919050565b7f4552433732313a20617070726f76616c20746f2063757272656e74206f776e6560008201527f7200000000000000000000000000000000000000000000000000000000000000602082015250565b6000613977602183613176565b91506139828261391b565b604082019050919050565b600060208201905081810360008301526139a68161396a565b9050919050565b7f4552433732313a20617070726f76652063616c6c6572206973206e6f74206f7760008201527f6e6572206e6f7220617070726f76656420666f7220616c6c0000000000000000602082015250565b6000613a09603883613176565b9150613a14826139ad565b604082019050919050565b60006020820190508181036000830152613a38816139fc565b9050919050565b7f4552433732313a207472616e736665722063616c6c6572206973206e6f74206f60008201527f776e6572206e6f7220617070726f766564000000000000000000000000000000602082015250565b6000613a9b603183613176565b9150613aa682613a3f565b604082019050919050565b60006020820190508181036000830152613aca81613a8e565b9050919050565b7f455243373231456e756d657261626c653a206f776e657220696e646578206f7560008201527f74206f6620626f756e6473000000000000000000000000000000000000000000602082015250565b6000613b2d602b83613176565b9150613b3882613ad1565b604082019050919050565b60006020820190508181036000830152613b5c81613b20565b9050919050565b7f4f776e61626c653a2063616c6c6572206973206e6f7420746865206f776e6572600082015250565b6000613b99602083613176565b9150613ba482613b63565b602082019050919050565b60006020820190508181036000830152613bc881613b8c565b9050919050565b600081905092915050565b50565b6000613bea600083613bcf565b9150613bf582613bda565b600082019050919050565b6000613c0b82613bdd565b9150819050919050565b7f4e487b7100000000000000000000000000000000000000000000000000000000600052603260045260246000fd5b7f4e487b7100000000000000000000000000000000000000000000000000000000600052601160045260246000fd5b6000613c7e82613226565b91507fffffffffffffffffffffffffffffffffffffffffffffffffffffffffffffffff8203613cb057613caf613c44565b5b600182019050919050565b7f455243373231456e756d657261626c653a20676c6f62616c20696e646578206f60008201527f7574206f6620626f756e64730000000000000000000000000000000000000000602082015250565b6000613d17602c83613176565b9150613d2282613cbb565b604082019050919050565b60006020820190508181036000830152613d4681613d0a565b9050919050565b7f4552433732313a206f776e657220717565727920666f72206e6f6e657869737460008201527f656e7420746f6b656e0000000000000000000000000000000000000000000000602082015250565b6000613da9602983613176565b9150613db482613d4d565b604082019050919050565b60006020820190508181036000830152613dd881613d9c565b9050919050565b7f4552433732313a2062616c616e636520717565727920666f7220746865207a6560008201527f726f206164647265737300000000000000000000000000000000000000000000602082015250565b6000613e3b602a83613176565b9150613e4682613ddf565b604082019050919050565b60006020820190508181036000830152613e6a81613e2e565b9050919050565b7f53616c65206973206e6f7420616374697665207965742e000000000000000000600082015250565b6000613ea7601783613176565b9150613eb282613e71565b602082019050919050565b60006020820190508181036000830152613ed681613e9a565b9050919050565b7f43616c6c65722063616e6e6f74206265206120636f6e74726163742e00000000600082015250565b6000613f13601c83613176565b9150613f1e82613edd565b602082019050919050565b60006020820190508181036000830152613f4281613f06565b9050919050565b7f4174206c65617374206d696e74206f6e652e0000000000000000000000000000600082015250565b6000613f7f601283613176565b9150613f8a82613f49565b602082019050919050565b60006020820190508181036000830152613fae81613f72565b9050919050565b6000613fc082613226565b9150613fcb83613226565b9250827fffffffffffffffffffffffffffffffffffffffffffffffffffffffffffffffff0382111561400057613fff613c44565b5b828201905092915050565b7f45786365656473206d6178206672656520737570706c792e0000000000000000600082015250565b6000614041601883613176565b915061404c8261400b565b602082019050919050565b6000602082019050818103600083015261407081614034565b9050919050565b7f45786365656473206d61782066726565206d696e74732070657220616464726560008201527f7373210000000000000000000000000000000000000000000000000000000000602082015250565b60006140d3602383613176565b91506140de82614077565b604082019050919050565b60006020820190508181036000830152614102816140c6565b9050919050565b600061411482613226565b915061411f83613226565b9250817fffffffffffffffffffffffffffffffffffffffffffffffffffffffffffffffff048311821515161561415857614157613c44565b5b828202905092915050565b7f496e73756666696369656e742046756e642e0000000000000000000000000000600082015250565b6000614199601283613176565b91506141a482614163565b602082019050919050565b600060208201905081810360008301526141c88161418c565b9050919050565b7f45786365656473206d617820737570706c792e00000000000000000000000000600082015250565b6000614205601383613176565b9150614210826141cf565b602082019050919050565b60006020820190508181036000830152614234816141f8565b9050919050565b7f45786365656473206d6178206d696e7473207065722061646472657373210000600082015250565b6000614271601e83613176565b915061427c8261423b565b602082019050919050565b600060208201905081810360008301526142a081614264565b9050919050565b7f496e76616c6964206d696e7420616d6f756e742e000000000000000000000000600082015250565b60006142dd601483613176565b91506142e8826142a7565b602082019050919050565b6000602082019050818103600083015261430c816142d0565b9050919050565b7f4552433732314d657461646174613a2055524920717565727920666f72206e6f60008201527f6e6578697374656e7420746f6b656e0000000000000000000000000000000000602082015250565b600061436f602f83613176565b915061437a82614313565b604082019050919050565b6000602082019050818103600083015261439e81614362565b9050919050565b600081905092915050565b60006143bb8261316b565b6143c581856143a5565b93506143d5818560208601613187565b80840191505092915050565b60008190508160005260206000209050919050565b6000815461440381613858565b61440d81866143a5565b9450600182166000811461442857600181146144395761446c565b60ff1983168652818601935061446c565b614442856143e1565b60005b8381101561446457815481890152600182019150602081019050614445565b838801955050505b50505092915050565b600061448182866143b0565b915061448d82856143b0565b915061449982846143f6565b9150819050949350505050565b7f4f776e61626c653a206e6577206f776e657220697320746865207a65726f206160008201527f6464726573730000000000000000000000000000000000000000000000000000602082015250565b6000614502602683613176565b915061450d826144a6565b604082019050919050565b60006020820190508181036000830152614531816144f5565b9050919050565b7f4552433732313a206f70657261746f7220717565727920666f72206e6f6e657860008201527f697374656e7420746f6b656e0000000000000000000000000000000000000000602082015250565b6000614594602c83613176565b915061459f82614538565b604082019050919050565b600060208201905081810360008301526145c381614587565b9050919050565b7f4552433732313a207472616e736665722066726f6d20696e636f72726563742060008201527f6f776e6572000000000000000000000000000000000000000000000000000000602082015250565b6000614626602583613176565b9150614631826145ca565b604082019050919050565b6000602082019050818103600083015261465581614619565b9050919050565b7f4552433732313a207472616e7366657220746f20746865207a65726f2061646460008201527f7265737300000000000000000000000000000000000000000000000000000000602082015250565b60006146b8602483613176565b91506146c38261465c565b604082019050919050565b600060208201905081810360008301526146e7816146ab565b9050919050565b60006146f982613226565b915061470483613226565b92508282101561471757614716613c44565b5b828203905092915050565b7f4552433732313a20617070726f766520746f2063616c6c657200000000000000600082015250565b6000614758601983613176565b915061476382614722565b602082019050919050565b600060208201905081810360008301526147878161474b565b9050919050565b7f4552433732313a207472616e7366657220746f206e6f6e20455243373231526560008201527f63656976657220696d706c656d656e7465720000000000000000000000000000602082015250565b60006147ea603283613176565b91506147f58261478e565b604082019050919050565b60006020820190508181036000830152614819816147dd565b9050919050565b7f4e487b7100000000000000000000000000000000000000000000000000000000600052601260045260246000fd5b600061485a82613226565b915061486583613226565b92508261487557614874614820565b5b828204905092915050565b600061488b82613226565b915061489683613226565b9250826148a6576148a5614820565b5b828206905092915050565b600081519050919050565b600082825260208201905092915050565b60006148d8826148b1565b6148e281856148bc565b93506148f2818560208601613187565b6148fb816131ba565b840191505092915050565b600060808201905061491b60008301876132bb565b61492860208301866132bb565b6149356040830185613351565b818103606083015261494781846148cd565b905095945050505050565b600081519050614961816130dc565b92915050565b60006020828403121561497d5761497c6130a6565b5b600061498b84828501614952565b91505092915050565b7f4e487b7100000000000000000000000000000000000000000000000000000000600052603160045260246000fd5b7f4552433732313a206d696e7420746f20746865207a65726f2061646472657373600082015250565b60006149f9602083613176565b9150614a04826149c3565b602082019050919050565b60006020820190508181036000830152614a28816149ec565b9050919050565b7f4552433732313a20746f6b656e20616c7265616479206d696e74656400000000600082015250565b6000614a65601c83613176565b9150614a7082614a2f565b602082019050919050565b60006020820190508181036000830152614a9481614a58565b905091905056fea26469706673582212209565a8d951c13671d23b08737a9b58db645f6b57540cff90932635543302607e64736f6c634300080e0033",
    "immutableReferences": {},
    "source": "// SPDX-License-Identifier: MIT\n\n// File: node_modules\\openzeppelin-solidity\\contracts\\utils\\introspection\\IERC165.sol\n\n// OpenZeppelin Contracts v4.4.1 (utils/introspection/IERC165.sol)\n\npragma solidity ^0.8.0;\n\n/**\n * @dev Interface of the ERC165 standard, as defined in the\n * https://eips.ethereum.org/EIPS/eip-165[EIP].\n *\n * Implementers can declare support of contract interfaces, which can then be\n * queried by others ({ERC165Checker}).\n *\n * For an implementation, see {ERC165}.\n */\ninterface IERC165 {\n    /**\n     * @dev Returns true if this contract implements the interface defined by\n     * `interfaceId`. See the corresponding\n     * https://eips.ethereum.org/EIPS/eip-165#how-interfaces-are-identified[EIP section]\n     * to learn more about how these ids are created.\n     *\n     * This function call must use less than 30 000 gas.\n     */\n    function supportsInterface(bytes4 interfaceId) external view returns (bool);\n}\n\n// File: node_modules\\openzeppelin-solidity\\contracts\\token\\ERC721\\IERC721.sol\n\n// OpenZeppelin Contracts (last updated v4.6.0) (token/ERC721/IERC721.sol)\n\npragma solidity ^0.8.0;\n\n/**\n * @dev Required interface of an ERC721 compliant contract.\n */\ninterface IERC721 is IERC165 {\n    /**\n     * @dev Emitted when `tokenId` token is transferred from `from` to `to`.\n     */\n    event Transfer(\n        address indexed from,\n        address indexed to,\n        uint256 indexed tokenId\n    );\n\n    /**\n     * @dev Emitted when `owner` enables `approved` to manage the `tokenId` token.\n     */\n    event Approval(\n        address indexed owner,\n        address indexed approved,\n        uint256 indexed tokenId\n    );\n\n    /**\n     * @dev Emitted when `owner` enables or disables (`approved`) `operator` to manage all of its assets.\n     */\n    event ApprovalForAll(\n        address indexed owner,\n        address indexed operator,\n        bool approved\n    );\n\n    /**\n     * @dev Returns the number of tokens in ``owner``'s account.\n     */\n    function balanceOf(address owner) external view returns (uint256 balance);\n\n    /**\n     * @dev Returns the owner of the `tokenId` token.\n     *\n     * Requirements:\n     *\n     * - `tokenId` must exist.\n     */\n    function ownerOf(uint256 tokenId) external view returns (address owner);\n\n    /**\n     * @dev Safely transfers `tokenId` token from `from` to `to`.\n     *\n     * Requirements:\n     *\n     * - `from` cannot be the zero address.\n     * - `to` cannot be the zero address.\n     * - `tokenId` token must exist and be owned by `from`.\n     * - If the caller is not `from`, it must be approved to move this token by either {approve} or {setApprovalForAll}.\n     * - If `to` refers to a smart contract, it must implement {IERC721Receiver-onERC721Received}, which is called upon a safe transfer.\n     *\n     * Emits a {Transfer} event.\n     */\n    function safeTransferFrom(\n        address from,\n        address to,\n        uint256 tokenId,\n        bytes calldata data\n    ) external;\n\n    /**\n     * @dev Safely transfers `tokenId` token from `from` to `to`, checking first that contract recipients\n     * are aware of the ERC721 protocol to prevent tokens from being forever locked.\n     *\n     * Requirements:\n     *\n     * - `from` cannot be the zero address.\n     * - `to` cannot be the zero address.\n     * - `tokenId` token must exist and be owned by `from`.\n     * - If the caller is not `from`, it must be have been allowed to move this token by either {approve} or {setApprovalForAll}.\n     * - If `to` refers to a smart contract, it must implement {IERC721Receiver-onERC721Received}, which is called upon a safe transfer.\n     *\n     * Emits a {Transfer} event.\n     */\n    function safeTransferFrom(\n        address from,\n        address to,\n        uint256 tokenId\n    ) external;\n\n    /**\n     * @dev Transfers `tokenId` token from `from` to `to`.\n     *\n     * WARNING: Usage of this method is discouraged, use {safeTransferFrom} whenever possible.\n     *\n     * Requirements:\n     *\n     * - `from` cannot be the zero address.\n     * - `to` cannot be the zero address.\n     * - `tokenId` token must be owned by `from`.\n     * - If the caller is not `from`, it must be approved to move this token by either {approve} or {setApprovalForAll}.\n     *\n     * Emits a {Transfer} event.\n     */\n    function transferFrom(\n        address from,\n        address to,\n        uint256 tokenId\n    ) external;\n\n    /**\n     * @dev Gives permission to `to` to transfer `tokenId` token to another account.\n     * The approval is cleared when the token is transferred.\n     *\n     * Only a single account can be approved at a time, so approving the zero address clears previous approvals.\n     *\n     * Requirements:\n     *\n     * - The caller must own the token or be an approved operator.\n     * - `tokenId` must exist.\n     *\n     * Emits an {Approval} event.\n     */\n    function approve(address to, uint256 tokenId) external;\n\n    /**\n     * @dev Approve or remove `operator` as an operator for the caller.\n     * Operators can call {transferFrom} or {safeTransferFrom} for any token owned by the caller.\n     *\n     * Requirements:\n     *\n     * - The `operator` cannot be the caller.\n     *\n     * Emits an {ApprovalForAll} event.\n     */\n    function setApprovalForAll(address operator, bool _approved) external;\n\n    /**\n     * @dev Returns the account approved for `tokenId` token.\n     *\n     * Requirements:\n     *\n     * - `tokenId` must exist.\n     */\n    function getApproved(uint256 tokenId)\n        external\n        view\n        returns (address operator);\n\n    /**\n     * @dev Returns if the `operator` is allowed to manage all of the assets of `owner`.\n     *\n     * See {setApprovalForAll}\n     */\n    function isApprovedForAll(address owner, address operator)\n        external\n        view\n        returns (bool);\n}\n\n// File: node_modules\\openzeppelin-solidity\\contracts\\token\\ERC721\\IERC721Receiver.sol\n\n// OpenZeppelin Contracts (last updated v4.6.0) (token/ERC721/IERC721Receiver.sol)\n\npragma solidity ^0.8.0;\n\n/**\n * @title ERC721 token receiver interface\n * @dev Interface for any contract that wants to support safeTransfers\n * from ERC721 asset contracts.\n */\ninterface IERC721Receiver {\n    /**\n     * @dev Whenever an {IERC721} `tokenId` token is transferred to this contract via {IERC721-safeTransferFrom}\n     * by `operator` from `from`, this function is called.\n     *\n     * It must return its Solidity selector to confirm the token transfer.\n     * If any other value is returned or the interface is not implemented by the recipient, the transfer will be reverted.\n     *\n     * The selector can be obtained in Solidity with `IERC721Receiver.onERC721Received.selector`.\n     */\n    function onERC721Received(\n        address operator,\n        address from,\n        uint256 tokenId,\n        bytes calldata data\n    ) external returns (bytes4);\n}\n\n// File: node_modules\\openzeppelin-solidity\\contracts\\token\\ERC721\\extensions\\IERC721Metadata.sol\n\n// OpenZeppelin Contracts v4.4.1 (token/ERC721/extensions/IERC721Metadata.sol)\n\npragma solidity ^0.8.0;\n\n/**\n * @title ERC-721 Non-Fungible Token Standard, optional metadata extension\n * @dev See https://eips.ethereum.org/EIPS/eip-721\n */\ninterface IERC721Metadata is IERC721 {\n    /**\n     * @dev Returns the token collection name.\n     */\n    function name() external view returns (string memory);\n\n    /**\n     * @dev Returns the token collection symbol.\n     */\n    function symbol() external view returns (string memory);\n\n    /**\n     * @dev Returns the Uniform Resource Identifier (URI) for `tokenId` token.\n     */\n    function tokenURI(uint256 tokenId) external view returns (string memory);\n}\n\n// File: node_modules\\openzeppelin-solidity\\contracts\\utils\\Address.sol\n\n// OpenZeppelin Contracts (last updated v4.5.0) (utils/Address.sol)\n\npragma solidity ^0.8.1;\n\n/**\n * @dev Collection of functions related to the address type\n */\nlibrary Address {\n    /**\n     * @dev Returns true if `account` is a contract.\n     *\n     * [IMPORTANT]\n     * ====\n     * It is unsafe to assume that an address for which this function returns\n     * false is an externally-owned account (EOA) and not a contract.\n     *\n     * Among others, `isContract` will return false for the following\n     * types of addresses:\n     *\n     *  - an externally-owned account\n     *  - a contract in construction\n     *  - an address where a contract will be created\n     *  - an address where a contract lived, but was destroyed\n     * ====\n     *\n     * [IMPORTANT]\n     * ====\n     * You shouldn't rely on `isContract` to protect against flash loan attacks!\n     *\n     * Preventing calls from contracts is highly discouraged. It breaks composability, breaks support for smart wallets\n     * like Gnosis Safe, and does not provide security since it can be circumvented by calling from a contract\n     * constructor.\n     * ====\n     */\n    function isContract(address account) internal view returns (bool) {\n        // This method relies on extcodesize/address.code.length, which returns 0\n        // for contracts in construction, since the code is only stored at the end\n        // of the constructor execution.\n\n        return account.code.length > 0;\n    }\n\n    /**\n     * @dev Replacement for Solidity's `transfer`: sends `amount` wei to\n     * `recipient`, forwarding all available gas and reverting on errors.\n     *\n     * https://eips.ethereum.org/EIPS/eip-1884[EIP1884] increases the gas cost\n     * of certain opcodes, possibly making contracts go over the 2300 gas limit\n     * imposed by `transfer`, making them unable to receive funds via\n     * `transfer`. {sendValue} removes this limitation.\n     *\n     * https://diligence.consensys.net/posts/2019/09/stop-using-soliditys-transfer-now/[Learn more].\n     *\n     * IMPORTANT: because control is transferred to `recipient`, care must be\n     * taken to not create reentrancy vulnerabilities. Consider using\n     * {ReentrancyGuard} or the\n     * https://solidity.readthedocs.io/en/v0.5.11/security-considerations.html#use-the-checks-effects-interactions-pattern[checks-effects-interactions pattern].\n     */\n    function sendValue(address payable recipient, uint256 amount) internal {\n        require(\n            address(this).balance >= amount,\n            \"Address: insufficient balance\"\n        );\n\n        (bool success, ) = recipient.call{value: amount}(\"\");\n        require(\n            success,\n            \"Address: unable to send value, recipient may have reverted\"\n        );\n    }\n\n    /**\n     * @dev Performs a Solidity function call using a low level `call`. A\n     * plain `call` is an unsafe replacement for a function call: use this\n     * function instead.\n     *\n     * If `target` reverts with a revert reason, it is bubbled up by this\n     * function (like regular Solidity function calls).\n     *\n     * Returns the raw returned data. To convert to the expected return value,\n     * use https://solidity.readthedocs.io/en/latest/units-and-global-variables.html?highlight=abi.decode#abi-encoding-and-decoding-functions[`abi.decode`].\n     *\n     * Requirements:\n     *\n     * - `target` must be a contract.\n     * - calling `target` with `data` must not revert.\n     *\n     * _Available since v3.1._\n     */\n    function functionCall(address target, bytes memory data)\n        internal\n        returns (bytes memory)\n    {\n        return functionCall(target, data, \"Address: low-level call failed\");\n    }\n\n    /**\n     * @dev Same as {xref-Address-functionCall-address-bytes-}[`functionCall`], but with\n     * `errorMessage` as a fallback revert reason when `target` reverts.\n     *\n     * _Available since v3.1._\n     */\n    function functionCall(\n        address target,\n        bytes memory data,\n        string memory errorMessage\n    ) internal returns (bytes memory) {\n        return functionCallWithValue(target, data, 0, errorMessage);\n    }\n\n    /**\n     * @dev Same as {xref-Address-functionCall-address-bytes-}[`functionCall`],\n     * but also transferring `value` wei to `target`.\n     *\n     * Requirements:\n     *\n     * - the calling contract must have an ETH balance of at least `value`.\n     * - the called Solidity function must be `payable`.\n     *\n     * _Available since v3.1._\n     */\n    function functionCallWithValue(\n        address target,\n        bytes memory data,\n        uint256 value\n    ) internal returns (bytes memory) {\n        return\n            functionCallWithValue(\n                target,\n                data,\n                value,\n                \"Address: low-level call with value failed\"\n            );\n    }\n\n    /**\n     * @dev Same as {xref-Address-functionCallWithValue-address-bytes-uint256-}[`functionCallWithValue`], but\n     * with `errorMessage` as a fallback revert reason when `target` reverts.\n     *\n     * _Available since v3.1._\n     */\n    function functionCallWithValue(\n        address target,\n        bytes memory data,\n        uint256 value,\n        string memory errorMessage\n    ) internal returns (bytes memory) {\n        require(\n            address(this).balance >= value,\n            \"Address: insufficient balance for call\"\n        );\n        require(isContract(target), \"Address: call to non-contract\");\n\n        (bool success, bytes memory returndata) = target.call{value: value}(\n            data\n        );\n        return verifyCallResult(success, returndata, errorMessage);\n    }\n\n    /**\n     * @dev Same as {xref-Address-functionCall-address-bytes-}[`functionCall`],\n     * but performing a static call.\n     *\n     * _Available since v3.3._\n     */\n    function functionStaticCall(address target, bytes memory data)\n        internal\n        view\n        returns (bytes memory)\n    {\n        return\n            functionStaticCall(\n                target,\n                data,\n                \"Address: low-level static call failed\"\n            );\n    }\n\n    /**\n     * @dev Same as {xref-Address-functionCall-address-bytes-string-}[`functionCall`],\n     * but performing a static call.\n     *\n     * _Available since v3.3._\n     */\n    function functionStaticCall(\n        address target,\n        bytes memory data,\n        string memory errorMessage\n    ) internal view returns (bytes memory) {\n        require(isContract(target), \"Address: static call to non-contract\");\n\n        (bool success, bytes memory returndata) = target.staticcall(data);\n        return verifyCallResult(success, returndata, errorMessage);\n    }\n\n    /**\n     * @dev Same as {xref-Address-functionCall-address-bytes-}[`functionCall`],\n     * but performing a delegate call.\n     *\n     * _Available since v3.4._\n     */\n    function functionDelegateCall(address target, bytes memory data)\n        internal\n        returns (bytes memory)\n    {\n        return\n            functionDelegateCall(\n                target,\n                data,\n                \"Address: low-level delegate call failed\"\n            );\n    }\n\n    /**\n     * @dev Same as {xref-Address-functionCall-address-bytes-string-}[`functionCall`],\n     * but performing a delegate call.\n     *\n     * _Available since v3.4._\n     */\n    function functionDelegateCall(\n        address target,\n        bytes memory data,\n        string memory errorMessage\n    ) internal returns (bytes memory) {\n        require(isContract(target), \"Address: delegate call to non-contract\");\n\n        (bool success, bytes memory returndata) = target.delegatecall(data);\n        return verifyCallResult(success, returndata, errorMessage);\n    }\n\n    /**\n     * @dev Tool to verifies that a low level call was successful, and revert if it wasn't, either by bubbling the\n     * revert reason using the provided one.\n     *\n     * _Available since v4.3._\n     */\n    function verifyCallResult(\n        bool success,\n        bytes memory returndata,\n        string memory errorMessage\n    ) internal pure returns (bytes memory) {\n        if (success) {\n            return returndata;\n        } else {\n            // Look for revert reason and bubble it up if present\n            if (returndata.length > 0) {\n                // The easiest way to bubble the revert reason is using memory via assembly\n\n                assembly {\n                    let returndata_size := mload(returndata)\n                    revert(add(32, returndata), returndata_size)\n                }\n            } else {\n                revert(errorMessage);\n            }\n        }\n    }\n}\n\n// File: node_modules\\openzeppelin-solidity\\contracts\\utils\\Context.sol\n\n// OpenZeppelin Contracts v4.4.1 (utils/Context.sol)\n\npragma solidity ^0.8.0;\n\n/**\n * @dev Provides information about the current execution context, including the\n * sender of the transaction and its data. While these are generally available\n * via msg.sender and msg.data, they should not be accessed in such a direct\n * manner, since when dealing with meta-transactions the account sending and\n * paying for execution may not be the actual sender (as far as an application\n * is concerned).\n *\n * This contract is only required for intermediate, library-like contracts.\n */\nabstract contract Context {\n    function _msgSender() internal view virtual returns (address) {\n        return msg.sender;\n    }\n\n    function _msgData() internal view virtual returns (bytes calldata) {\n        return msg.data;\n    }\n}\n\n// File: node_modules\\openzeppelin-solidity\\contracts\\utils\\Strings.sol\n\n// OpenZeppelin Contracts v4.4.1 (utils/Strings.sol)\n\npragma solidity ^0.8.0;\n\n/**\n * @dev String operations.\n */\nlibrary Strings {\n    bytes16 private constant _HEX_SYMBOLS = \"0123456789abcdef\";\n\n    /**\n     * @dev Converts a `uint256` to its ASCII `string` decimal representation.\n     */\n    function toString(uint256 value) internal pure returns (string memory) {\n        // Inspired by OraclizeAPI's implementation - MIT licence\n        // https://github.com/oraclize/ethereum-api/blob/b42146b063c7d6ee1358846c198246239e9360e8/oraclizeAPI_0.4.25.sol\n\n        if (value == 0) {\n            return \"0\";\n        }\n        uint256 temp = value;\n        uint256 digits;\n        while (temp != 0) {\n            digits++;\n            temp /= 10;\n        }\n        bytes memory buffer = new bytes(digits);\n        while (value != 0) {\n            digits -= 1;\n            buffer[digits] = bytes1(uint8(48 + uint256(value % 10)));\n            value /= 10;\n        }\n        return string(buffer);\n    }\n\n    /**\n     * @dev Converts a `uint256` to its ASCII `string` hexadecimal representation.\n     */\n    function toHexString(uint256 value) internal pure returns (string memory) {\n        if (value == 0) {\n            return \"0x00\";\n        }\n        uint256 temp = value;\n        uint256 length = 0;\n        while (temp != 0) {\n            length++;\n            temp >>= 8;\n        }\n        return toHexString(value, length);\n    }\n\n    /**\n     * @dev Converts a `uint256` to its ASCII `string` hexadecimal representation with fixed length.\n     */\n    function toHexString(uint256 value, uint256 length)\n        internal\n        pure\n        returns (string memory)\n    {\n        bytes memory buffer = new bytes(2 * length + 2);\n        buffer[0] = \"0\";\n        buffer[1] = \"x\";\n        for (uint256 i = 2 * length + 1; i > 1; --i) {\n            buffer[i] = _HEX_SYMBOLS[value & 0xf];\n            value >>= 4;\n        }\n        require(value == 0, \"Strings: hex length insufficient\");\n        return string(buffer);\n    }\n}\n\n// File: node_modules\\openzeppelin-solidity\\contracts\\utils\\introspection\\ERC165.sol\n\n// OpenZeppelin Contracts v4.4.1 (utils/introspection/ERC165.sol)\n\npragma solidity ^0.8.0;\n\n/**\n * @dev Implementation of the {IERC165} interface.\n *\n * Contracts that want to implement ERC165 should inherit from this contract and override {supportsInterface} to check\n * for the additional interface id that will be supported. For example:\n *\n * ```solidity\n * function supportsInterface(bytes4 interfaceId) public view virtual override returns (bool) {\n *     return interfaceId == type(MyInterface).interfaceId || super.supportsInterface(interfaceId);\n * }\n * ```\n *\n * Alternatively, {ERC165Storage} provides an easier to use but more expensive implementation.\n */\nabstract contract ERC165 is IERC165 {\n    /**\n     * @dev See {IERC165-supportsInterface}.\n     */\n    function supportsInterface(bytes4 interfaceId)\n        public\n        view\n        virtual\n        override\n        returns (bool)\n    {\n        return interfaceId == type(IERC165).interfaceId;\n    }\n}\n\n// File: node_modules\\openzeppelin-solidity\\contracts\\token\\ERC721\\ERC721.sol\n\n// OpenZeppelin Contracts (last updated v4.6.0) (token/ERC721/ERC721.sol)\n\npragma solidity ^0.8.0;\n\n/**\n * @dev Implementation of https://eips.ethereum.org/EIPS/eip-721[ERC721] Non-Fungible Token Standard, including\n * the Metadata extension, but not including the Enumerable extension, which is available separately as\n * {ERC721Enumerable}.\n */\ncontract ERC721 is Context, ERC165, IERC721, IERC721Metadata {\n    using Address for address;\n    using Strings for uint256;\n\n    // Token name\n    string private _name;\n\n    // Token symbol\n    string private _symbol;\n\n    // Mapping from token ID to owner address\n    mapping(uint256 => address) private _owners;\n\n    // Mapping owner address to token count\n    mapping(address => uint256) private _balances;\n\n    // Mapping from token ID to approved address\n    mapping(uint256 => address) private _tokenApprovals;\n\n    // Mapping from owner to operator approvals\n    mapping(address => mapping(address => bool)) private _operatorApprovals;\n\n    /**\n     * @dev Initializes the contract by setting a `name` and a `symbol` to the token collection.\n     */\n    constructor(string memory name_, string memory symbol_) {\n        _name = name_;\n        _symbol = symbol_;\n    }\n\n    /**\n     * @dev See {IERC165-supportsInterface}.\n     */\n    function supportsInterface(bytes4 interfaceId)\n        public\n        view\n        virtual\n        override(ERC165, IERC165)\n        returns (bool)\n    {\n        return\n            interfaceId == type(IERC721).interfaceId ||\n            interfaceId == type(IERC721Metadata).interfaceId ||\n            super.supportsInterface(interfaceId);\n    }\n\n    /**\n     * @dev See {IERC721-balanceOf}.\n     */\n    function balanceOf(address owner)\n        public\n        view\n        virtual\n        override\n        returns (uint256)\n    {\n        require(\n            owner != address(0),\n            \"ERC721: balance query for the zero address\"\n        );\n        return _balances[owner];\n    }\n\n    /**\n     * @dev See {IERC721-ownerOf}.\n     */\n    function ownerOf(uint256 tokenId)\n        public\n        view\n        virtual\n        override\n        returns (address)\n    {\n        address owner = _owners[tokenId];\n        require(\n            owner != address(0),\n            \"ERC721: owner query for nonexistent token\"\n        );\n        return owner;\n    }\n\n    /**\n     * @dev See {IERC721Metadata-name}.\n     */\n    function name() public view virtual override returns (string memory) {\n        return _name;\n    }\n\n    /**\n     * @dev See {IERC721Metadata-symbol}.\n     */\n    function symbol() public view virtual override returns (string memory) {\n        return _symbol;\n    }\n\n    /**\n     * @dev See {IERC721Metadata-tokenURI}.\n     */\n    function tokenURI(uint256 tokenId)\n        public\n        view\n        virtual\n        override\n        returns (string memory)\n    {\n        require(\n            _exists(tokenId),\n            \"ERC721Metadata: URI query for nonexistent token\"\n        );\n\n        string memory baseURI = _baseURI();\n        return\n            bytes(baseURI).length > 0\n                ? string(abi.encodePacked(baseURI, tokenId.toString()))\n                : \"\";\n    }\n\n    /**\n     * @dev Base URI for computing {tokenURI}. If set, the resulting URI for each\n     * token will be the concatenation of the `baseURI` and the `tokenId`. Empty\n     * by default, can be overridden in child contracts.\n     */\n    function _baseURI() internal view virtual returns (string memory) {\n        return \"\";\n    }\n\n    /**\n     * @dev See {IERC721-approve}.\n     */\n    function approve(address to, uint256 tokenId) public virtual override {\n        address owner = ERC721.ownerOf(tokenId);\n        require(to != owner, \"ERC721: approval to current owner\");\n\n        require(\n            _msgSender() == owner || isApprovedForAll(owner, _msgSender()),\n            \"ERC721: approve caller is not owner nor approved for all\"\n        );\n\n        _approve(to, tokenId);\n    }\n\n    /**\n     * @dev See {IERC721-getApproved}.\n     */\n    function getApproved(uint256 tokenId)\n        public\n        view\n        virtual\n        override\n        returns (address)\n    {\n        require(\n            _exists(tokenId),\n            \"ERC721: approved query for nonexistent token\"\n        );\n\n        return _tokenApprovals[tokenId];\n    }\n\n    /**\n     * @dev See {IERC721-setApprovalForAll}.\n     */\n    function setApprovalForAll(address operator, bool approved)\n        public\n        virtual\n        override\n    {\n        _setApprovalForAll(_msgSender(), operator, approved);\n    }\n\n    /**\n     * @dev See {IERC721-isApprovedForAll}.\n     */\n    function isApprovedForAll(address owner, address operator)\n        public\n        view\n        virtual\n        override\n        returns (bool)\n    {\n        return _operatorApprovals[owner][operator];\n    }\n\n    /**\n     * @dev See {IERC721-transferFrom}.\n     */\n    function transferFrom(\n        address from,\n        address to,\n        uint256 tokenId\n    ) public virtual override {\n        //solhint-disable-next-line max-line-length\n        require(\n            _isApprovedOrOwner(_msgSender(), tokenId),\n            \"ERC721: transfer caller is not owner nor approved\"\n        );\n\n        _transfer(from, to, tokenId);\n    }\n\n    /**\n     * @dev See {IERC721-safeTransferFrom}.\n     */\n    function safeTransferFrom(\n        address from,\n        address to,\n        uint256 tokenId\n    ) public virtual override {\n        safeTransferFrom(from, to, tokenId, \"\");\n    }\n\n    /**\n     * @dev See {IERC721-safeTransferFrom}.\n     */\n    function safeTransferFrom(\n        address from,\n        address to,\n        uint256 tokenId,\n        bytes memory _data\n    ) public virtual override {\n        require(\n            _isApprovedOrOwner(_msgSender(), tokenId),\n            \"ERC721: transfer caller is not owner nor approved\"\n        );\n        _safeTransfer(from, to, tokenId, _data);\n    }\n\n    /**\n     * @dev Safely transfers `tokenId` token from `from` to `to`, checking first that contract recipients\n     * are aware of the ERC721 protocol to prevent tokens from being forever locked.\n     *\n     * `_data` is additional data, it has no specified format and it is sent in call to `to`.\n     *\n     * This internal function is equivalent to {safeTransferFrom}, and can be used to e.g.\n     * implement alternative mechanisms to perform token transfer, such as signature-based.\n     *\n     * Requirements:\n     *\n     * - `from` cannot be the zero address.\n     * - `to` cannot be the zero address.\n     * - `tokenId` token must exist and be owned by `from`.\n     * - If `to` refers to a smart contract, it must implement {IERC721Receiver-onERC721Received}, which is called upon a safe transfer.\n     *\n     * Emits a {Transfer} event.\n     */\n    function _safeTransfer(\n        address from,\n        address to,\n        uint256 tokenId,\n        bytes memory _data\n    ) internal virtual {\n        _transfer(from, to, tokenId);\n        require(\n            _checkOnERC721Received(from, to, tokenId, _data),\n            \"ERC721: transfer to non ERC721Receiver implementer\"\n        );\n    }\n\n    /**\n     * @dev Returns whether `tokenId` exists.\n     *\n     * Tokens can be managed by their owner or approved accounts via {approve} or {setApprovalForAll}.\n     *\n     * Tokens start existing when they are minted (`_mint`),\n     * and stop existing when they are burned (`_burn`).\n     */\n    function _exists(uint256 tokenId) internal view virtual returns (bool) {\n        return _owners[tokenId] != address(0);\n    }\n\n    /**\n     * @dev Returns whether `spender` is allowed to manage `tokenId`.\n     *\n     * Requirements:\n     *\n     * - `tokenId` must exist.\n     */\n    function _isApprovedOrOwner(address spender, uint256 tokenId)\n        internal\n        view\n        virtual\n        returns (bool)\n    {\n        require(\n            _exists(tokenId),\n            \"ERC721: operator query for nonexistent token\"\n        );\n        address owner = ERC721.ownerOf(tokenId);\n        return (spender == owner ||\n            isApprovedForAll(owner, spender) ||\n            getApproved(tokenId) == spender);\n    }\n\n    /**\n     * @dev Safely mints `tokenId` and transfers it to `to`.\n     *\n     * Requirements:\n     *\n     * - `tokenId` must not exist.\n     * - If `to` refers to a smart contract, it must implement {IERC721Receiver-onERC721Received}, which is called upon a safe transfer.\n     *\n     * Emits a {Transfer} event.\n     */\n    function _safeMint(address to, uint256 tokenId) internal virtual {\n        _safeMint(to, tokenId, \"\");\n    }\n\n    /**\n     * @dev Same as {xref-ERC721-_safeMint-address-uint256-}[`_safeMint`], with an additional `data` parameter which is\n     * forwarded in {IERC721Receiver-onERC721Received} to contract recipients.\n     */\n    function _safeMint(\n        address to,\n        uint256 tokenId,\n        bytes memory _data\n    ) internal virtual {\n        _mint(to, tokenId);\n        require(\n            _checkOnERC721Received(address(0), to, tokenId, _data),\n            \"ERC721: transfer to non ERC721Receiver implementer\"\n        );\n    }\n\n    /**\n     * @dev Mints `tokenId` and transfers it to `to`.\n     *\n     * WARNING: Usage of this method is discouraged, use {_safeMint} whenever possible\n     *\n     * Requirements:\n     *\n     * - `tokenId` must not exist.\n     * - `to` cannot be the zero address.\n     *\n     * Emits a {Transfer} event.\n     */\n    function _mint(address to, uint256 tokenId) internal virtual {\n        require(to != address(0), \"ERC721: mint to the zero address\");\n        require(!_exists(tokenId), \"ERC721: token already minted\");\n\n        _beforeTokenTransfer(address(0), to, tokenId);\n\n        _balances[to] += 1;\n        _owners[tokenId] = to;\n\n        emit Transfer(address(0), to, tokenId);\n\n        _afterTokenTransfer(address(0), to, tokenId);\n    }\n\n    /**\n     * @dev Destroys `tokenId`.\n     * The approval is cleared when the token is burned.\n     *\n     * Requirements:\n     *\n     * - `tokenId` must exist.\n     *\n     * Emits a {Transfer} event.\n     */\n    function _burn(uint256 tokenId) internal virtual {\n        address owner = ERC721.ownerOf(tokenId);\n\n        _beforeTokenTransfer(owner, address(0), tokenId);\n\n        // Clear approvals\n        _approve(address(0), tokenId);\n\n        _balances[owner] -= 1;\n        delete _owners[tokenId];\n\n        emit Transfer(owner, address(0), tokenId);\n\n        _afterTokenTransfer(owner, address(0), tokenId);\n    }\n\n    /**\n     * @dev Transfers `tokenId` from `from` to `to`.\n     *  As opposed to {transferFrom}, this imposes no restrictions on msg.sender.\n     *\n     * Requirements:\n     *\n     * - `to` cannot be the zero address.\n     * - `tokenId` token must be owned by `from`.\n     *\n     * Emits a {Transfer} event.\n     */\n    function _transfer(\n        address from,\n        address to,\n        uint256 tokenId\n    ) internal virtual {\n        require(\n            ERC721.ownerOf(tokenId) == from,\n            \"ERC721: transfer from incorrect owner\"\n        );\n        require(to != address(0), \"ERC721: transfer to the zero address\");\n\n        _beforeTokenTransfer(from, to, tokenId);\n\n        // Clear approvals from the previous owner\n        _approve(address(0), tokenId);\n\n        _balances[from] -= 1;\n        _balances[to] += 1;\n        _owners[tokenId] = to;\n\n        emit Transfer(from, to, tokenId);\n\n        _afterTokenTransfer(from, to, tokenId);\n    }\n\n    /**\n     * @dev Approve `to` to operate on `tokenId`\n     *\n     * Emits a {Approval} event.\n     */\n    function _approve(address to, uint256 tokenId) internal virtual {\n        _tokenApprovals[tokenId] = to;\n        emit Approval(ERC721.ownerOf(tokenId), to, tokenId);\n    }\n\n    /**\n     * @dev Approve `operator` to operate on all of `owner` tokens\n     *\n     * Emits a {ApprovalForAll} event.\n     */\n    function _setApprovalForAll(\n        address owner,\n        address operator,\n        bool approved\n    ) internal virtual {\n        require(owner != operator, \"ERC721: approve to caller\");\n        _operatorApprovals[owner][operator] = approved;\n        emit ApprovalForAll(owner, operator, approved);\n    }\n\n    /**\n     * @dev Internal function to invoke {IERC721Receiver-onERC721Received} on a target address.\n     * The call is not executed if the target address is not a contract.\n     *\n     * @param from address representing the previous owner of the given token ID\n     * @param to target address that will receive the tokens\n     * @param tokenId uint256 ID of the token to be transferred\n     * @param _data bytes optional data to send along with the call\n     * @return bool whether the call correctly returned the expected magic value\n     */\n    function _checkOnERC721Received(\n        address from,\n        address to,\n        uint256 tokenId,\n        bytes memory _data\n    ) private returns (bool) {\n        if (to.isContract()) {\n            try\n                IERC721Receiver(to).onERC721Received(\n                    _msgSender(),\n                    from,\n                    tokenId,\n                    _data\n                )\n            returns (bytes4 retval) {\n                return retval == IERC721Receiver.onERC721Received.selector;\n            } catch (bytes memory reason) {\n                if (reason.length == 0) {\n                    revert(\n                        \"ERC721: transfer to non ERC721Receiver implementer\"\n                    );\n                } else {\n                    assembly {\n                        revert(add(32, reason), mload(reason))\n                    }\n                }\n            }\n        } else {\n            return true;\n        }\n    }\n\n    /**\n     * @dev Hook that is called before any token transfer. This includes minting\n     * and burning.\n     *\n     * Calling conditions:\n     *\n     * - When `from` and `to` are both non-zero, ``from``'s `tokenId` will be\n     * transferred to `to`.\n     * - When `from` is zero, `tokenId` will be minted for `to`.\n     * - When `to` is zero, ``from``'s `tokenId` will be burned.\n     * - `from` and `to` are never both zero.\n     *\n     * To learn more about hooks, head to xref:ROOT:extending-contracts.adoc#using-hooks[Using Hooks].\n     */\n    function _beforeTokenTransfer(\n        address from,\n        address to,\n        uint256 tokenId\n    ) internal virtual {}\n\n    /**\n     * @dev Hook that is called after any transfer of tokens. This includes\n     * minting and burning.\n     *\n     * Calling conditions:\n     *\n     * - when `from` and `to` are both non-zero.\n     * - `from` and `to` are never both zero.\n     *\n     * To learn more about hooks, head to xref:ROOT:extending-contracts.adoc#using-hooks[Using Hooks].\n     */\n    function _afterTokenTransfer(\n        address from,\n        address to,\n        uint256 tokenId\n    ) internal virtual {}\n}\n\n// File: node_modules\\openzeppelin-solidity\\contracts\\token\\ERC721\\extensions\\IERC721Enumerable.sol\n\n// OpenZeppelin Contracts (last updated v4.5.0) (token/ERC721/extensions/IERC721Enumerable.sol)\n\npragma solidity ^0.8.0;\n\n/**\n * @title ERC-721 Non-Fungible Token Standard, optional enumeration extension\n * @dev See https://eips.ethereum.org/EIPS/eip-721\n */\ninterface IERC721Enumerable is IERC721 {\n    /**\n     * @dev Returns the total amount of tokens stored by the contract.\n     */\n    function totalSupply() external view returns (uint256);\n\n    /**\n     * @dev Returns a token ID owned by `owner` at a given `index` of its token list.\n     * Use along with {balanceOf} to enumerate all of ``owner``'s tokens.\n     */\n    function tokenOfOwnerByIndex(address owner, uint256 index)\n        external\n        view\n        returns (uint256);\n\n    /**\n     * @dev Returns a token ID at a given `index` of all the tokens stored by the contract.\n     * Use along with {totalSupply} to enumerate all tokens.\n     */\n    function tokenByIndex(uint256 index) external view returns (uint256);\n}\n\n// File: openzeppelin-solidity\\contracts\\token\\ERC721\\extensions\\ERC721Enumerable.sol\n\n// OpenZeppelin Contracts v4.4.1 (token/ERC721/extensions/ERC721Enumerable.sol)\n\npragma solidity ^0.8.0;\n\n/**\n * @dev This implements an optional extension of {ERC721} defined in the EIP that adds\n * enumerability of all the token ids in the contract as well as all token ids owned by each\n * account.\n */\nabstract contract ERC721Enumerable is ERC721, IERC721Enumerable {\n    // Mapping from owner to list of owned token IDs\n    mapping(address => mapping(uint256 => uint256)) private _ownedTokens;\n\n    // Mapping from token ID to index of the owner tokens list\n    mapping(uint256 => uint256) private _ownedTokensIndex;\n\n    // Array with all token ids, used for enumeration\n    uint256[] private _allTokens;\n\n    // Mapping from token id to position in the allTokens array\n    mapping(uint256 => uint256) private _allTokensIndex;\n\n    /**\n     * @dev See {IERC165-supportsInterface}.\n     */\n    function supportsInterface(bytes4 interfaceId)\n        public\n        view\n        virtual\n        override(IERC165, ERC721)\n        returns (bool)\n    {\n        return\n            interfaceId == type(IERC721Enumerable).interfaceId ||\n            super.supportsInterface(interfaceId);\n    }\n\n    /**\n     * @dev See {IERC721Enumerable-tokenOfOwnerByIndex}.\n     */\n    function tokenOfOwnerByIndex(address owner, uint256 index)\n        public\n        view\n        virtual\n        override\n        returns (uint256)\n    {\n        require(\n            index < ERC721.balanceOf(owner),\n            \"ERC721Enumerable: owner index out of bounds\"\n        );\n        return _ownedTokens[owner][index];\n    }\n\n    /**\n     * @dev See {IERC721Enumerable-totalSupply}.\n     */\n    function totalSupply() public view virtual override returns (uint256) {\n        return _allTokens.length;\n    }\n\n    /**\n     * @dev See {IERC721Enumerable-tokenByIndex}.\n     */\n    function tokenByIndex(uint256 index)\n        public\n        view\n        virtual\n        override\n        returns (uint256)\n    {\n        require(\n            index < ERC721Enumerable.totalSupply(),\n            \"ERC721Enumerable: global index out of bounds\"\n        );\n        return _allTokens[index];\n    }\n\n    /**\n     * @dev Hook that is called before any token transfer. This includes minting\n     * and burning.\n     *\n     * Calling conditions:\n     *\n     * - When `from` and `to` are both non-zero, ``from``'s `tokenId` will be\n     * transferred to `to`.\n     * - When `from` is zero, `tokenId` will be minted for `to`.\n     * - When `to` is zero, ``from``'s `tokenId` will be burned.\n     * - `from` cannot be the zero address.\n     * - `to` cannot be the zero address.\n     *\n     * To learn more about hooks, head to xref:ROOT:extending-contracts.adoc#using-hooks[Using Hooks].\n     */\n    function _beforeTokenTransfer(\n        address from,\n        address to,\n        uint256 tokenId\n    ) internal virtual override {\n        super._beforeTokenTransfer(from, to, tokenId);\n\n        if (from == address(0)) {\n            _addTokenToAllTokensEnumeration(tokenId);\n        } else if (from != to) {\n            _removeTokenFromOwnerEnumeration(from, tokenId);\n        }\n        if (to == address(0)) {\n            _removeTokenFromAllTokensEnumeration(tokenId);\n        } else if (to != from) {\n            _addTokenToOwnerEnumeration(to, tokenId);\n        }\n    }\n\n    /**\n     * @dev Private function to add a token to this extension's ownership-tracking data structures.\n     * @param to address representing the new owner of the given token ID\n     * @param tokenId uint256 ID of the token to be added to the tokens list of the given address\n     */\n    function _addTokenToOwnerEnumeration(address to, uint256 tokenId) private {\n        uint256 length = ERC721.balanceOf(to);\n        _ownedTokens[to][length] = tokenId;\n        _ownedTokensIndex[tokenId] = length;\n    }\n\n    /**\n     * @dev Private function to add a token to this extension's token tracking data structures.\n     * @param tokenId uint256 ID of the token to be added to the tokens list\n     */\n    function _addTokenToAllTokensEnumeration(uint256 tokenId) private {\n        _allTokensIndex[tokenId] = _allTokens.length;\n        _allTokens.push(tokenId);\n    }\n\n    /**\n     * @dev Private function to remove a token from this extension's ownership-tracking data structures. Note that\n     * while the token is not assigned a new owner, the `_ownedTokensIndex` mapping is _not_ updated: this allows for\n     * gas optimizations e.g. when performing a transfer operation (avoiding double writes).\n     * This has O(1) time complexity, but alters the order of the _ownedTokens array.\n     * @param from address representing the previous owner of the given token ID\n     * @param tokenId uint256 ID of the token to be removed from the tokens list of the given address\n     */\n    function _removeTokenFromOwnerEnumeration(address from, uint256 tokenId)\n        private\n    {\n        // To prevent a gap in from's tokens array, we store the last token in the index of the token to delete, and\n        // then delete the last slot (swap and pop).\n\n        uint256 lastTokenIndex = ERC721.balanceOf(from) - 1;\n        uint256 tokenIndex = _ownedTokensIndex[tokenId];\n\n        // When the token to delete is the last token, the swap operation is unnecessary\n        if (tokenIndex != lastTokenIndex) {\n            uint256 lastTokenId = _ownedTokens[from][lastTokenIndex];\n\n            _ownedTokens[from][tokenIndex] = lastTokenId; // Move the last token to the slot of the to-delete token\n            _ownedTokensIndex[lastTokenId] = tokenIndex; // Update the moved token's index\n        }\n\n        // This also deletes the contents at the last position of the array\n        delete _ownedTokensIndex[tokenId];\n        delete _ownedTokens[from][lastTokenIndex];\n    }\n\n    /**\n     * @dev Private function to remove a token from this extension's token tracking data structures.\n     * This has O(1) time complexity, but alters the order of the _allTokens array.\n     * @param tokenId uint256 ID of the token to be removed from the tokens list\n     */\n    function _removeTokenFromAllTokensEnumeration(uint256 tokenId) private {\n        // To prevent a gap in the tokens array, we store the last token in the index of the token to delete, and\n        // then delete the last slot (swap and pop).\n\n        uint256 lastTokenIndex = _allTokens.length - 1;\n        uint256 tokenIndex = _allTokensIndex[tokenId];\n\n        // When the token to delete is the last token, the swap operation is unnecessary. However, since this occurs so\n        // rarely (when the last minted token is burnt) that we still do the swap here to avoid the gas cost of adding\n        // an 'if' statement (like in _removeTokenFromOwnerEnumeration)\n        uint256 lastTokenId = _allTokens[lastTokenIndex];\n\n        _allTokens[tokenIndex] = lastTokenId; // Move the last token to the slot of the to-delete token\n        _allTokensIndex[lastTokenId] = tokenIndex; // Update the moved token's index\n\n        // This also deletes the contents at the last position of the array\n        delete _allTokensIndex[tokenId];\n        _allTokens.pop();\n    }\n}\n\n// File: openzeppelin-solidity\\contracts\\access\\Ownable.sol\n\n// OpenZeppelin Contracts v4.4.1 (access/Ownable.sol)\n\npragma solidity ^0.8.0;\n\n/**\n * @dev Contract module which provides a basic access control mechanism, where\n * there is an account (an owner) that can be granted exclusive access to\n * specific functions.\n *\n * By default, the owner account will be the one that deploys the contract. This\n * can later be changed with {transferOwnership}.\n *\n * This module is used through inheritance. It will make available the modifier\n * `onlyOwner`, which can be applied to your functions to restrict their use to\n * the owner.\n */\nabstract contract Ownable is Context {\n    address private _owner;\n\n    event OwnershipTransferred(\n        address indexed previousOwner,\n        address indexed newOwner\n    );\n\n    /**\n     * @dev Initializes the contract setting the deployer as the initial owner.\n     */\n    constructor() {\n        _transferOwnership(_msgSender());\n    }\n\n    /**\n     * @dev Returns the address of the current owner.\n     */\n    function owner() public view virtual returns (address) {\n        return _owner;\n    }\n\n    /**\n     * @dev Throws if called by any account other than the owner.\n     */\n    modifier onlyOwner() {\n        require(owner() == _msgSender(), \"Ownable: caller is not the owner\");\n        _;\n    }\n\n    /**\n     * @dev Leaves the contract without owner. It will not be possible to call\n     * `onlyOwner` functions anymore. Can only be called by the current owner.\n     *\n     * NOTE: Renouncing ownership will leave the contract without an owner,\n     * thereby removing any functionality that is only available to the owner.\n     */\n    function renounceOwnership() public virtual onlyOwner {\n        _transferOwnership(address(0));\n    }\n\n    /**\n     * @dev Transfers ownership of the contract to a new account (`newOwner`).\n     * Can only be called by the current owner.\n     */\n    function transferOwnership(address newOwner) public virtual onlyOwner {\n        require(\n            newOwner != address(0),\n            \"Ownable: new owner is the zero address\"\n        );\n        _transferOwnership(newOwner);\n    }\n\n    /**\n     * @dev Transfers ownership of the contract to a new account (`newOwner`).\n     * Internal function without access restriction.\n     */\n    function _transferOwnership(address newOwner) internal virtual {\n        address oldOwner = _owner;\n        _owner = newOwner;\n        emit OwnershipTransferred(oldOwner, newOwner);\n    }\n}\n\n// File: contracts\\RPG404.sol\n\npragma solidity >=0.7.0 <0.9.0;\n\ncontract RPG404 is ERC721Enumerable, Ownable {\n    using Strings for uint256;\n\n    string baseURI;\n    string public baseExtension = \".json\";\n\n    uint256 public maxSupply = 100;\n    uint256 public maxFreeSupply = 50;\n\n    uint256 public maxPerTxDuringMint = 5;\n    uint256 public maxPerAddressDuringMint = 20;\n    uint256 public maxPerAddressDuringFreeMint = 2;\n\n    uint256 public cost = 0.007 ether;\n    bool public saleIsActive = false;\n\n    mapping(address => uint256) public freeMintedAmount;\n    mapping(address => uint256) public mintedAmount;\n\n    constructor() ERC721(\"RPG 404\", \"RPG404\") {}\n\n    modifier mintCompliance() {\n        require(saleIsActive, \"Sale is not active yet.\");\n        require(tx.origin == msg.sender, \"Caller cannot be a contract.\");\n        _;\n    }\n\n    // internal\n    function _baseURI() internal view virtual override returns (string memory) {\n        return baseURI;\n    }\n\n    // public\n    function mint(uint256 _quantity) external payable mintCompliance {\n        uint256 _totalSupply = totalSupply();\n        require(_quantity > 0, \"At least mint one.\");\n        require(msg.value >= cost * _quantity, \"Insufficient Fund.\");\n        require(maxSupply >= _totalSupply + _quantity, \"Exceeds max supply.\");\n        uint256 _mintedAmount = mintedAmount[msg.sender];\n        require(\n            _mintedAmount + _quantity <= maxPerAddressDuringMint,\n            \"Exceeds max mints per address!\"\n        );\n        require(\n            _quantity > 0 && _quantity <= maxPerTxDuringMint,\n            \"Invalid mint amount.\"\n        );\n        mintedAmount[msg.sender] = _mintedAmount + _quantity;\n        for (uint256 i = 1; i <= _quantity; i++) {\n            _safeMint(msg.sender, _totalSupply + i);\n        }\n    }\n\n    function freeMint(uint256 _quantity) external mintCompliance {\n        uint256 _totalSupply = totalSupply();\n        require(_quantity > 0, \"At least mint one.\");\n        require(\n            maxFreeSupply >= _totalSupply + _quantity,\n            \"Exceeds max free supply.\"\n        );\n        uint256 _freeMintedAmount = freeMintedAmount[msg.sender];\n        require(\n            _freeMintedAmount + _quantity <= maxPerAddressDuringFreeMint,\n            \"Exceeds max free mints per address!\"\n        );\n        freeMintedAmount[msg.sender] = _freeMintedAmount + _quantity;\n\n        for (uint256 i = 1; i <= _quantity; i++) {\n            _safeMint(msg.sender, _totalSupply + i);\n        }\n    }\n\n    function walletOfOwner(address _owner)\n        public\n        view\n        returns (uint256[] memory)\n    {\n        uint256 _ownerTokenCount = balanceOf(_owner);\n        uint256[] memory tokenIds = new uint256[](_ownerTokenCount);\n        for (uint256 i; i < _ownerTokenCount; i++) {\n            tokenIds[i] = tokenOfOwnerByIndex(_owner, i);\n        }\n        return tokenIds;\n    }\n\n    function tokenURI(uint256 _tokenId)\n        public\n        view\n        virtual\n        override\n        returns (string memory)\n    {\n        require(\n            _exists(_tokenId),\n            \"ERC721Metadata: URI query for nonexistent token\"\n        );\n\n        string memory _currentBaseURI = _baseURI();\n        return\n            bytes(_currentBaseURI).length > 0\n                ? string(\n                    abi.encodePacked(\n                        _currentBaseURI,\n                        _tokenId.toString(),\n                        baseExtension\n                    )\n                )\n                : \"\";\n    }\n\n    function setCost(uint256 _newCost) public onlyOwner {\n        cost = _newCost;\n    }\n\n    function setmaxMintAmount(uint256 _newMaxPerTxDuringMint) public onlyOwner {\n        maxPerTxDuringMint = _newMaxPerTxDuringMint;\n    }\n\n    function setBaseURI(string memory _newBaseURI) public onlyOwner {\n        baseURI = _newBaseURI;\n    }\n\n    function setBaseExtension(string memory _newBaseExtension)\n        public\n        onlyOwner\n    {\n        baseExtension = _newBaseExtension;\n    }\n\n    function flipSale() public onlyOwner {\n        saleIsActive = !saleIsActive;\n    }\n\n    function withdraw() public payable onlyOwner {\n        (bool _success, ) = payable(owner()).call{value: address(this).balance}(\n            \"\"\n        );\n        require(_success);\n    }\n}\n",
    "sourcePath": "E:\\Project\\solidity-rpg-404-contract\\contracts\\RPG404_Flat.sol",
    "compiler": {
        "name": "solc",
        "version": "0.8.14+commit.80d49f37.Emscripten.clang"
    },
    "schemaVersion": "3.4.7",
    "updatedAt": "2022-06-11T19:05:22.719Z",
    "devdoc": {
        "kind": "dev",
        "methods": {
            "approve(address,uint256)": {
                "details": "See {IERC721-approve}."
            },
            "balanceOf(address)": {
                "details": "See {IERC721-balanceOf}."
            },
            "getApproved(uint256)": {
                "details": "See {IERC721-getApproved}."
            },
            "isApprovedForAll(address,address)": {
                "details": "See {IERC721-isApprovedForAll}."
            },
            "name()": {
                "details": "See {IERC721Metadata-name}."
            },
            "owner()": {
                "details": "Returns the address of the current owner."
            },
            "ownerOf(uint256)": {
                "details": "See {IERC721-ownerOf}."
            },
            "renounceOwnership()": {
                "details": "Leaves the contract without owner. It will not be possible to call `onlyOwner` functions anymore. Can only be called by the current owner. NOTE: Renouncing ownership will leave the contract without an owner, thereby removing any functionality that is only available to the owner."
            },
            "safeTransferFrom(address,address,uint256)": {
                "details": "See {IERC721-safeTransferFrom}."
            },
            "safeTransferFrom(address,address,uint256,bytes)": {
                "details": "See {IERC721-safeTransferFrom}."
            },
            "setApprovalForAll(address,bool)": {
                "details": "See {IERC721-setApprovalForAll}."
            },
            "supportsInterface(bytes4)": {
                "details": "See {IERC165-supportsInterface}."
            },
            "symbol()": {
                "details": "See {IERC721Metadata-symbol}."
            },
            "tokenByIndex(uint256)": {
                "details": "See {IERC721Enumerable-tokenByIndex}."
            },
            "tokenOfOwnerByIndex(address,uint256)": {
                "details": "See {IERC721Enumerable-tokenOfOwnerByIndex}."
            },
            "totalSupply()": {
                "details": "See {IERC721Enumerable-totalSupply}."
            },
            "transferFrom(address,address,uint256)": {
                "details": "See {IERC721-transferFrom}."
            },
            "transferOwnership(address)": {
                "details": "Transfers ownership of the contract to a new account (`newOwner`). Can only be called by the current owner."
            }
        },
        "version": 1
    },
    "userdoc": {
        "kind": "user",
        "methods": {},
        "version": 1
    }
}